:100000000C9461010C94A8010C94A8010C94A80113
:100010000C94A8010C94A8010C94A8010C94A801BC
:100020000C94A8010C94A8010C9464140C94201452
:100030000C9461150C94A8010C94A8010C94A801CF
:100040000C94A8010C94A8010C94A8010C94A8018C
:100050000C94A8010C943D150C94A8010C94A801D3
:100060000C94A8010C94A8010C94A8010C94A8016C
:100070000C94A8010C94A8010C94A8010C94A8015C
:100080000C94A8010C94A8010C94A8010C94A8014C
:100090000C94A8010C94A8010C94A8010C94A8013C
:1000A0000C94A8010C94A8010C94A80129001E002E
:1000B0001F0020002100220023002400250026002C
:1000C00027002D002E00310035002B0014001A00EF
:1000D0000800150017001C0018000C001200130087
:1000E0002F00300000002A00E00004001600070086
:1000F00009000A000B000D000E000F003300340051
:10010000000000002800E10000001D001B000600A8
:1001100019000500110010003600370038000000FB
:10012000E500015100000151E20000000000000064
:100130002C00000000000000E600E70000000000C6
:10014000000000003A003B003C003D003E003F0044
:1001500040004100420043004400450049004C007B
:100160003900000000000000000000000000530003
:100170004600470048005200000000000000010057
:10018000AA00A900A80000000000550054004A0081
:100190004B0050004F000000000000000100000074
:1001A00000000000000000000000570056004D0055
:1001B0004E0051000000010001000000010001009C
:1001C000000000000000000000000000000001002E
:1001D000010000000000000005010980A101850365
:1001E00019012AB700150126B70095017510810085
:1001F000C0050C0901A101850419012AA0021501FD
:1002000026A002950175108100C005010906A10113
:10021000050719E029E715002501950875018102F8
:100220009501750881010507190029FF150026FFB2
:1002300000950675088100050819012905950575C1
:10024000019102950175039101C009023B00020171
:1002500000A0FA09040000010301010009211101B5
:1002600000012240000705810308000A090401007B
:1002700001030000000921110100012232000705DD
:10028000820320000A120100020000000890780A90
:100290000001000102000116035900550049004FFA
:1002A0000050003600300048004800350000000CC7
:1002B000036B006F0072006F006E00000004030902
:1002C000040011241FBECFEFDAE0DEBFCDBF04B6BD
:1002D00003FE27C080911B0290911C02A0911D0279
:1002E000B0911E028730904BA740B04BD1F41092D2
:1002F0001B0210921C0210921D0210921E0214BECC
:1003000084B7877F84BF0FB6F894A895809160006A
:10031000886180936000109260000FBEE0E0F8E317
:10032000099511E0A0E0B1E0E6E4FFE202C005902B
:100330000D92AC35B107D9F722E0ACE5B1E001C0D0
:100340001D92AB31B207E1F70E9488150C947D171E
:100350000C940000E8EDF0E080818E7F80831092A5
:10036000E2001092DA001092E100A0EEB0E08C9171
:1003700081608C9380818F77808319BCA7EDB0E07A
:100380008C918E7F8C9380818F7E80831092FD0173
:1003900008952091E4003091E50095E6A9012091AF
:1003A000EC00822F817020FF06C08091E80080FF62
:1003B00006C080E008952091E80022FD1AC08091D7
:1003C0000A02882389F0853089F08091EB0085FD51
:1003D0000FC02091E4003091E50042175307F9F275
:1003E0009150E1F684E0089582E0089583E0089555
:1003F00081E00895EF92FF920F931F93CF937C01BA
:100400008B010E94C901C82F811117C08091E8009B
:1004100085FD0BC08091E8008E778093E8000E94F4
:10042000C901882399F3C82F08C0F70181917F0182
:100430008093F1000150110949F78C2FCF911F9142
:100440000F91FF90EF90089580910C0287FF13C0E9
:100450008091E80082FF06C08091E8008B7780934E
:10046000E80004C080910A028111F2CF08958091C2
:100470000A028823D9F38091E80080FFF8CF8091A9
:10048000E8008E77ECCF982F9093E900242F762FF9
:1004900050E0891731F07091EC002091ED005091FF
:1004A000F00021FD07C09F5F973071F78093E9004E
:1004B00081E008953091EB003E7F3093EB00309166
:1004C000ED003D7F3093ED003091EB0031603093D3
:1004D000EB007093EC002093ED005093F00020911E
:1004E000EE0027FDE0CF80E00895CF92DF92EF92FB
:1004F000FF920F931F93CF93DF93C8EDD0E08881D5
:100500008F7E8883E7EDF0E080818160808384E0E6
:1005100082BF81E08093FD0188818E7F888302EE17
:1005200010E0F80110821092DA0081EEC82ED12C72
:10053000F601108288818F7788838881806888831C
:1005400088818F7D888319BC10920A0210920B0259
:10055000109209021092080290EEE92EF12CF70198
:1005600080818B7F808388818160888342E060E026
:1005700080E00E944302F60180818E7F8083F80133
:10058000808181608083808188608083F7018081A1
:100590008E7F8083888180618883DF91CF911F91D6
:1005A0000F91FF90EF90DF90CF900895FC01809124
:1005B00012029091130286179707A0F0611571053A
:1005C00029F49091E8009E779093E80090E06115FF
:1005D000710551F4911108C08091E80082FF34C088
:1005E00080E00895BC01F2CF80910A028823C1F116
:1005F0008530C1F18091E80083FD30C08091E80032
:1006000082FDEACF8091E80080FFE1CF8091F30086
:100610002091F200382F6115710519F0283031054D
:1006200058F091E02830310509F090E02091E80081
:100630002E772093E800CBCF81918093F100615019
:1006400071092F5F3F4FE7CF80910A02882341F065
:10065000853041F08091E80083FFBECF81E00895AE
:1006600082E0089583E00895089508958091FF0140
:1006700008952FB7F8948091140290911502A091DB
:100680001602B09117022FBF08959C01FC0132960B
:100690009FEF80E04191461751F09F3F19F44111BF
:1006A00001C0982F8F5F8630A9F79F3F09F4089506
:1006B000290F311D97FD3A95F90162830895209124
:1006C000F7013091F8012817390771F09093F8017C
:1006D0008093F701E091F501F091F601309721F058
:1006E0000084F185E02D099408952091F301309163
:1006F000F4012817390771F09093F4018093F30106
:10070000E091F501F091F601309721F00680F78134
:10071000E02D09940895E091F501F091F6013097EC
:1007200021F00190F081E02D099480E0089580E0AF
:100730000895F894E82FE295EF70F0E031A1282FAA
:100740002F7081E090E001C0880F2A95EAF7982F7A
:100750009095932391A392A1892B82A378940895D5
:100760009091D10192FF06C0282F28712830F9F40A
:10077000877F846093FF06C0282F28712831F1F409
:10078000877E84612091D20120FF06C0382F387106
:100790003830D9F4877F816021FF06C0282F287167
:1007A0002831D1F4877E816194FD877E0895282FBA
:1007B00024712430F9F68B7F8860DCCF282F2471D8
:1007C000243101F78B7E8861DDCF382F31713130D4
:1007D00019F78E7F8860E0CF282F2171213121F712
:1007E0008E7E8861E1CFCF93DF93EC018238910553
:1007F000A9F1D8F58133910509F496C048F58932FD
:10080000910509F48AC08A9709F495C0C11522E5BB
:10081000D20708F0B6C0C11531E5D30708F026C1EC
:10082000C83ED10508F09CC0C03ED10560F5C83A6D
:10083000D10508F087C0C53AD10508F0EFC0C13036
:10084000D10509F12097F9F0C430D105E0F440C09A
:100850008533910509F45AC0C997C1F68091D10139
:10086000837089F0C0EED0E00EC0833E910599F10F
:1008700070F4803E910501F1823E910539F6809138
:10088000D10182FD21C0CE01DF91CF910895863E36
:10089000910561F1873E910571F1843E910509F062
:1008A000B5CF8091D20181FFEECF8091D101C7EE0B
:1008B000D0E084FD0DC0E7CF8091D10180FD07C15C
:1008C0009091D20190FFDFCFC3EED0E084FFDBCF69
:1008D000D0E0C0E0D8CF8091D10182FDFBC09091E3
:1008E000D20190FDBFCF84FFCECFF2CF8091D10156
:1008F00083FDDDCFC8CF8091D10183FDEEC0909103
:10090000D20191FFF0CFC4EED0E0BDCF8091D101F4
:1009100085FFB9CFC9E2D0E0B6CF8091D10185FF84
:10092000B2CFC5E3D0E0AFCF8091D10186FFABCF8E
:10093000CAE2D0E0A8CF8091D10186FFA4CFC1E365
:10094000D0E0A1CFCF3BD10518F6C85AD0E0CC0FEC
:10095000DD1FC05FDE4F0990D881C02DD46493CFD6
:10096000C11540E5D40708F064C0C11580E4D8077C
:1009700008F05CC0CE019A9581159F4108F483CFA1
:10098000A7CFC11536E5D30718F5C11545E5D4073E
:1009900008F084C0C11584E5D80708F07AC09C2F00
:1009A000969596959E0123703327C115D34508F47B
:1009B00062C0C1E0D0E002C0CC0FDD1F2A95E2F793
:1009C00030E2939FC0011124C82BD92BDA685BCF8A
:1009D000C1158AE5D80778F4C11599E5D90708F05B
:1009E00068C0C11528E5D20708F472CFDC2FCC27E8
:1009F000C06FD06A48CFCE0190568115904208F062
:100A000067CF8D2F8F710E94B00390E0982F8827B9
:100A100088279F719C012C2BE90149C0C55AD0E061
:100A2000C35FDE4FC881D0E0D0642DCFDF70D06AC5
:100A30002ACFCE01E4E096958795EA95E1F7837099
:100A40002C2F26952695237040E2249F9001112497
:100A5000382B8C2F8370C1E0D0E002C0CC0FDD1F9B
:100A60008A95E2F7C22BD32BDC680DCFDC2FCC2785
:100A7000C16FD06A08CFC1E0D0E002C0CC0FDD1F4B
:100A80002A95E2F720E2929FC0011124C82BD92BAE
:100A9000EBCFDC2FCC27C46FD06AF5CE8C2F0E9411
:100AA000B003C82FD0E0DC2FCC27CC27DF71D06279
:100AB000EACE8C2F8F700E94B00334E0D695C79594
:100AC0003A95E1F7CF709C2FEC01D069DCCEC9E3F9
:100AD000D0E0D9CEC2EED0E0D6CEC6EED0E0D3CEB6
:100AE0008091CB0181111092CB0108958095909156
:100AF000CA0198239093CA0108958091CA019091E8
:100B0000C901892B9091C801892B80935E01909136
:100B1000CB01992391F0892B80935E0120E080E640
:100B200091E0FC013191CF0131112F5FF1E0863668
:100B30009F07B9F721110E947005E091F501F0912E
:100B4000F601309731F00280F381E02D8EE591E0DF
:100B5000099408958091C60190919501981301C060
:100B600008958F5F8770FACFCF92DF92EF92FF9256
:100B70000F931F93CF93DF93E090D0012091CC018E
:100B8000E22AC7E0D0E0F12C082F10E02FE0929F7E
:100B9000000D111D11249BE4C92EDC2EC7010C2E63
:100BA00002C0959587950A94E2F780FD0DC02197C4
:100BB000A0F7D12C8D2DDF91CF911F910F91FF9038
:100BC000EF90DF90CF900895CC9EF001CD9EF00D78
:100BD0001124E00FF11FEE0FFF1FE455FF4F859129
:100BE00094910E94F303019711F3E4CFCF93DF9325
:100BF000EC010E94B405EC2FF0E09FE0D99FE00DDE
:100C0000F11D11249BE4899FE00DF11D1124EE0FCD
:100C1000FF1FE455FF4F85919491DF91CF910C9484
:100C2000F3032FE0929F800D1124982F97708695E3
:100C30008695869523E0829FF0011124EF58FE4FA0
:100C400050E040E080E0219130E0092E02C036956E
:100C500027950A94E2F721703327042E01C0220F52
:100C60000A94EAF7822B4F5F5F4F4330510559F7E3
:100C700008952FE0929F800D1124982F977041E0E6
:100C800001C0440F9A95EAF786958695869593E07C
:100C9000899FF0011124EF58FE4F90E080E070E052
:100CA0005191DF0111979B01082E02C036952795BF
:100CB0000A94E2F7217021952527242325272C93D8
:100CC00001968330910561F70895FC01808191813F
:100CD0000E94F605292F2F7092959F7092509E309A
:100CE00078F4E92FF0E0E158F84E0C942817803F93
:100CF00019F020F4883E20F481E00895843FE1F368
:100D000080E00895883EC0F3813FD1F7F5CF822F70
:100D1000869586958695089590E080E00E947503FB
:100D200090E080E00E945F031092C9011092C80118
:100D30000C947D058093D0010C948C0621E030E06A
:100D400001C0220F8A95EAF720958091D001822375
:100D50000C949A069091C701809589238093C701CE
:100D6000282F277091F4282F082E000C330B921790
:100D7000130659F09091D20192FD07C08595859593
:100D800085950E949E061092C701089521E030E0EB
:100D900001C0220F8A95EAF78091D001822B0C9432
:100DA0009A068093CC010C948C06882321F00E9433
:100DB00076050C947D050895882339F09091CA0139
:100DC000982B9093CA010C947D050895882381F196
:100DD0009CEF980F913A78F4E0E6F1E026E631E0F6
:100DE0009191891303C0DF0111971C922E173F07C1
:100DF000B9F70C947D0590E2980F983050F4877005
:100E000091E001C0990F8A95EAF7892F0E94760533
:100E1000F0CF9BE5980F933020F490E080E00C94A5
:100E20007503885A873120F490E080E00C945F03CA
:100E30000895CF93C82F882309F44EC08CEF8C0FF0
:100E4000813AF8F4E0E6F1E086E691E0DF012D91E9
:100E5000C21759F08A179B07D1F76C2F8EE591E0E6
:100E60000E944503CF910C947D052191C21303C0CC
:100E7000DF0111971C928E179F07B9F70E947D051D
:100E8000ECCF80E28C0F883068F4C77021E030E04E
:100E900001C0220FCA95EAF78091CA01822B809384
:100EA000CA01E0CFEBE5EC0FE33040F4F0E0E35FA4
:100EB000FE4F808190E0CF910C947503C85AC731E2
:100EC00058F4EC2FF0E0EE0FFF1FE05FFE4F808143
:100ED0009181CF910C945F03CF910895FC01EE0FA7
:100EE000FF1FE80FF91FE959FE4F1082118212828D
:100EF00081E08093660108950F931F93CF93DF9352
:100F0000C62FD42F022FFC0182818823A1F0609389
:100F10001A020E9439039093190280931802C77035
:100F200081E001C0880FCA95EAF7DF91CF911F9148
:100F30000F910C94DC0680911A02681343C0209133
:100F40001802309119024FB7F894809114029091D1
:100F50001502A0911602B09117024FBF821B930B8E
:100F6000883C910578F510E21D0F6D17B9F080E20D
:100F7000860F883040F4C77081E001C0880FCA95A1
:100F8000EAF70E94D506183048F481E09D2F97704B
:100F900001C0880F9A95EAF70E94DC06802F0E9414
:100FA0001907802F0E94E606183098F4D77081E068
:100FB00001C0880FDA95EAF7DF91CF911F910F9169
:100FC0000C94D506C77081E001C0880FCA95EAF776
:100FD000F3CFDF91CF911F910F9108958093FA0184
:100FE0007093FC016093FB0180910A02843001F54B
:100FF00082E08093E9008FEF9091E800815095FDA9
:1010000006C095ED9A95F1F700008111F5CF80911A
:10101000E80085FF0DC050E040E063E070E08AEF3B
:1010200091E00E94FA018091E8008E778093E800B9
:101030000895BC0184E00C94EE07BC0183E00C949D
:10104000EE07CF93DF93EC0181E08093E9008FEF0F
:101050009091E800815095FD06C095ED9A95F1F7C5
:1010600000008111F5CF8091E80085FF14C050E0A9
:1010700040E068E070E0CE010E94FA018091E80053
:101080008E778093E80088E0FE01A0E0B2E0019056
:101090000D928A95E1F7DF91CF91089580916601D5
:1010A000882331F1239A35B1377F25B128604FB7B6
:1010B000F89487E691E0FC015191CF0168E025B9F1
:1010C000000000C057FF35B9550F000000C000C038
:1010D00000C035B900C06A9591F7F1E080379F07ED
:1010E00051F74FBF8FE594E00197F1F700C0000082
:1010F0000895CF93DF93C82FC17082FBDD27D0F90D
:1011000081FF26C0109267018FEF809368011092D3
:10111000690181E080936601DD23F9F010926A0194
:101120008CEC80936B0180936C0181E0809366016D
:10113000CC23C1F010926D0110926E018FEF80935D
:101140006F0181E080936601DF91CF910C944E088E
:1011500090E080E00E946E07DFCF81E090E00E9487
:101160006E07E6CF82E090E00E946E07EDCF10920E
:10117000CA01E0E6F1E086E0DF011D928A95E9F719
:101180000C948C061F93CF93DF93CDB7DEB7AA974D
:101190000FB6F894DEBF0FBECDBF8CE092E0209179
:1011A000F100FC012193CF01F2E084319F07B9F7F0
:1011B00080910D02833009F470C0B8F4813009F4D5
:1011C00047C0823009F4B1C08091E80083FF7EC23D
:1011D00080910C0290910D029A3008F077C2E92FAD
:1011E000F0E0E357F84E0C9428178A3009F48CC0CD
:1011F0008B3009F46FC0893039F780910C0281324D
:1012000019F780911002909111020297E8F68091EF
:10121000E800877F8093E8008091E80082FF38C073
:101220009091F3008091F200029731F48091F100E7
:10123000813011F0863021F48091F1008093FF011C
:101240008091E8008B778093E8000E942402BCCF55
:1012500080910C02813A09F0B7CF8091E800877F36
:101260008093E8008091100290911102892B61F423
:1012700068E080E092E070E00E94D6028091E80091
:101280008B778093E800A0CF60E090E080E0F3CF20
:1012900080910A028111C0CF97CF80910C02813AD0
:1012A00009F092CF8091100290911102892B09F0E0
:1012B0008BCF8091E800877F8093E8008091E800E1
:1012C00080FFFCCF80910C018093F1008091E800B9
:1012D0008E77B9CF80910C02813209F075CF809161
:1012E000100290911102892B09F06ECF8091E800D5
:1012F000877F8093E8000E94240280910E028093F1
:101300000C010E94B70860CF80910C02813209F075
:101310005BCF8091E800877F8093E8000E942402E1
:1013200080910F028093FE014FCF80910C02813A91
:1013300009F04ACF8091E800877F8093E800809190
:10134000E80080FFFCCF8091FE01BECF803899F08D
:10135000823809F0BBC1809110028F70873008F08D
:10136000B5C18093E9008091EB0085FB882780F967
:101370001092E90006C08091080290910902911133
:1013800082609091E800977F9093E8008093F1004D
:101390001092F1008091E8008E7794C1882309F4BF
:1013A00082C1823009F092C180910E02811185C103
:1013B000809110028F702FEF280F263008F086C121
:1013C0008093E9002091EB0020FF77C1933031F446
:1013D0008091EB0080628093EB006FC19091EB00F5
:1013E00090619093EB0021E030E001C0220F8A95DC
:1013F000EAF72093EA001092EA008091EB008860FF
:10140000EACF811163C110910E021F778091E30032
:101410008078812B8093E3008091E800877F809320
:10142000E8000E9424028091E80080FFFCCF8091B8
:10143000E30080688093E30082E0111183E08093F1
:101440000A0244C18058823008F040C180910E02E7
:1014500090910F028C3D23E09207A1F583E08A83EF
:101460008AE289834FB7F894DE01139620E03EE0CC
:1014700051E2E32FF0E050935700E49120FF03C0C6
:10148000E295EF703F5FEF708E2F90E0EA30C0F092
:10149000C7968D939D932F5F243159F74FBF80914D
:1014A000E800877F8093E8006AE270E0CE01019651
:1014B0000E94D6028091E8008B778093E80006C1F5
:1014C000C096E7CF4091100250911102292F332787
:1014D0002330310509F444C078F52130310509F491
:1014E0006FC08BE390E0EAE4F2E02230310509F0CE
:1014F000EDC02091E800277F2093E80020911202A0
:10150000309113028217930708F49C0140E02115E3
:10151000310509F064C0411162C08091E80082FD8C
:10152000C9CF80910A02882329F2853019F280916F
:10153000E80083FFF2CFBECF21323105A9F122327C
:10154000310509F0C3C04115510509F443C04130CC
:10155000510509F0BBC082E390E0E8EDF1E0C9CFAE
:10156000992781309105C1F0009759F0029709F051
:10157000ADC0E7E9F2E0E4918E2F90E0E7E9F2E018
:1015800007C0EDEBF2E0E4918E2F90E0EDEBF2E09E
:10159000009709F49BC0ADCFEFEAF2E0E4918E2F03
:1015A00090E0EFEAF2E0F4CF4115510571F04130DF
:1015B000510509F08BC089E090E0E5E7F2E099CFB2
:1015C00082E190E0E5E8F2E094CF89E090E0ECE59C
:1015D000F2E08FCF80E490E0EAE0F2E08ACF809101
:1015E0000A02882309F466CF853009F463CF80911D
:1015F000E80083FD5FCF8091E80082FD8ECF80916F
:10160000E80080FF84CF9091F3008091F2002115D3
:10161000310519F08830910550F041E0089709F044
:1016200040E08091E8008E778093E80070CF44918D
:101630004093F1003196215031090196E8CF80386E
:1016400009F044C08091E800877F8093E800809192
:101650000B028093F1009ECE811138C010910E02D2
:101660001230A0F58091E800877F8093E800109306
:101670000B020E942402112311F084E005C0809126
:10168000E30087FDFACF81E080930A0242E061EC3B
:1016900081E00E94430242E261EC82E00E94430248
:1016A00080910A0213C080910E02813079F481E0AA
:1016B000933009F080E0809309021092E900809154
:1016C000E800877F8093E8000E9424028091E80070
:1016D00083FF0AC08091E800877F8093E8008091B3
:1016E000EB0080628093EB00AA960FB6F894DEBF01
:1016F0000FBECDBFDF91CF911F910895CF9384E0AE
:1017000090E00E942E17C82F82E290E00E942E17D0
:10171000982F8C2FCF9108954F925F926F927F9266
:101720008F929F92AF92BF92CF92DF92EF92FF92F1
:101730000F931F93CF93DF93CDB7DEB72A970FB6E2
:10174000F894DEBF0FBECDBF8E010F5F1F4F8AE042
:10175000F80111928A95E9F79EE3E92E91E0F92EBE
:10176000680123E4422E21E0522E66246394712CFA
:1017700042E5842E41E0942EF70181917F018F3F55
:1017800009F445C0F894E82FE295EF70F0E021A14C
:101790008F70A30102C0440F551F8A95E2F7CA015A
:1017A000922F982B91A392A18095892382A378945C
:1017B00000C0E3E4F1E021E030E0B12CA12C419144
:1017C0004F3F09F489C0A42FA295AF70B0E0909666
:1017D0008C9190E04F7002C0959587954A95E2F7FD
:1017E00080FD7AC0C901A82AB92A220F331F8E169C
:1017F0009F0629F7F701319780818F3F11F00E94F2
:10180000990350EA5A95F1F7F601B182A082F2E00D
:10181000CF0ED11C4E145F0409F0AECF4AE050E069
:10182000B80183ED91E00E947017FF24F3940097B4
:1018300009F4F12C892B09F452C08AE0F801A3EDD8
:10184000B1E001900D928A95E1F781E08093CF019C
:101850000E9439039093CE018093CD012091CD0158
:101860003091CE014FB7F8948091140290911502F7
:10187000A0911602B09117024FBF821B930B0597E0
:1018800090F18091D3019091D4019093DE018093E7
:10189000DD018091D5019091D6019093E001809374
:1018A000DF018091D7019091D8019093E20180935C
:1018B000E1018091D9019091DA019093E401809344
:1018C000E3018091DB019091DC019093E60180932C
:1018D000E5011092CF0107C090E080E084CF8091B5
:1018E000CF018111BBCF8F2D2A960FB6F894DEBFA2
:1018F0000FBECDBFDF91CF911F910F91FF90EF9061
:10190000DF90CF90BF90AF909F908F907F906F901F
:101910005F904F90089569EE7EEF90E080E00E9426
:101920005A1760E082E090E00E943C1760E083E09C
:1019300090E00E943C171092CC0160E084E090E0BF
:101940000E943C1760E082E290E00E943C1760E059
:1019500085E090E00E943C1760E086E090E00E9405
:101960003C176FEF87E090E00E943C1740E050E0AA
:10197000BA0188E090E00E944E1760E08DE090E0B0
:101980000E943C1740E050E0BA0188E190E00E94DC
:101990004E1760E087E190E00E943C1740E050E085
:1019A000BA018CE190E00E944E1770E060E080E2A6
:1019B00090E00E945A1740E050E0BA0188E190E0C0
:1019C0000E944E1740E050E0BA018FE090E00E9484
:1019D0004E1740E050E0BA0183E190E00C944E17BE
:1019E000CF93C091D201C2FB992790F9981799F033
:1019F00080FBC2F9C093D2016091D10184E090E0F4
:101A00000E943C176C2F82E290E00E943C1782E01B
:101A1000CF910C94AA06CF9108958F929F92AF9286
:101A2000BF92CF92DF92EF92FF920F931F93CF93CB
:101A3000DF9300D000D00F92CDB7DEB77C01FC0160
:101A400083819481892B39F01081D180812F8D2160
:101A50008F3F09F005C40F900F900F900F900F90DB
:101A6000DF91CF911F910F91FF90EF90DF90CF907A
:101A7000BF90AF909F908F9008950E94B405082F5B
:101A8000682F89819A810E943906E12FF0E02FE0CA
:101A9000D29EE00DF11D11243BE4039FE00DF11DEA
:101AA0001124EE0FFF1FE455FF4F05911491043FE1
:101AB0008CE5180709F496C0B0F5093DECE51E0762
:101AC00009F48CC00A3DFCE51F0709F497C0083DE6
:101AD0002CE51207B1F526E241EE61EEC7010E9446
:101AE0007C078091C701877009F4B5CFF701828127
:101AF000882309F4B0CF8091D20182FDACCF82E07F
:101B00000F900F900F900F900F90DF91CF911F913A
:101B10000F91FF90EF90DF90CF90BF90AF909F908C
:101B20008F900C94AA06063F3CE5130709F462C0A7
:101B300008F45CC027E245EE66EE073F9CE5190716
:101B400069F2F7018281882309F49BC310921A027B
:101B50000430FDE51F0708F054C00B3F2CE51207C9
:101B600030F4C80182509C45449708F04FC00E9451
:101B70007E0B9093D2018093D10100318CE5180740
:101B800009F417C108F093C00830ECE51E0709F40A
:101B9000FEC008F065C004302CE5120709F4E9C066
:101BA00008F04BC002308CE5180709F4DCC08091C6
:101BB000D101826003301C4509F4D8C06091D10185
:101BC0001091D20184E090E00E943C17612F82E2E4
:101BD00090E00E943C170E94B70883CF27E245EEB1
:101BE00065EE7CCF26E241EE60EE78CF27E245EE4F
:101BF00064EE74CF26E241EE62EE70CF28E241E05F
:101C0000EFCF02363DE5130709F4B1CF0631ECE51D
:101C10001E0709F04CC38091CA018A7A91E009F449
:101C200090E09093700169E2811165E38EE591E0A7
:101C30000E9445030E947D0554CF8091D1018061AF
:101C40000630ECE51E0709F491C08091D10188604F
:101C500007301C4508F48AC08091D101806286C09B
:101C60008091D1018D7F0C302CE5120709F47EC0E4
:101C700058F40A308CE5180709F493C008F48BC0B7
:101C80008091D1018E7F72C08091D101877F0E300B
:101C9000ECE51E0709F46AC08091D1018B7F0F30FB
:101CA0001C4508F463C08091D1018F7E5FC00D3F59
:101CB0002CE5120709F479C068F504318CE51807A2
:101CC00009F48BC080F40231ECE51E0709F475C0FD
:101CD0008091D1018F7B03311C4508F447C080916E
:101CE000D101837F43C00B3F2CE5120709F445C0A7
:101CF00008F049C005311C4509F060CF8091D10141
:101D000082FB992790F921E0922790FB82F990FBC2
:101D100083F92CC001309DE5190709F454C088F4FB
:101D20008091D20183600F3FFCE51F0749F180914C
:101D3000D2018D7F01151D4518F18091D2018C7F54
:101D40001FC003303DE5130709F456C008F44EC028
:101D500002361D4509F032CF9091D101892F8F7E37
:101D600094FF806103C08091D10181608093D10193
:101D700025CF8091D1018460F9CF8091D20181601B
:101D80008093D2011BCF8091D2018260F9CF8091E4
:101D9000D1018064EBCF0E94B7088091D1018068A7
:101DA000E5CF8091D1018C60E1CF8091D2018E7F0F
:101DB000E7CF8091D1018F7DD9CF0E94B708809164
:101DC000D1018F77D3CF8091D201982F90959170C8
:101DD0008E7F892B90FB81F9D3CF0E94B708909119
:101DE000D101892F97FB87F98058C0CF61E08EE041
:101DF00090E00E943C17E2CE60E0F9CF85E349C253
:101E00000E94B708FFEF24E33CE0F150204030404F
:101E1000E1F700C0000081E08093E00080E2809361
:101E2000D8001092C9008FE19EE40197F1F700C03D
:101E3000000087E090EBDC0180931B0290931C0272
:101E4000A0931D02B0931E0288E19CE00FB6F894A7
:101E5000A895809360000FBE90936000FFCF81E053
:101E600046C280E044C2812F902F0E941106D82ED6
:101E700051C2212F2F70C22E107F19F0C29420EF73
:101E8000C222DD20B9F0CC2069F080E2800F8830DA
:101E900010F0811009C08091CA01C82AC092CA01FD
:101EA0000E947D05802F4BC08091C901C82AC09235
:101EB000C901F6CF802F0E94E606CC2009F441C06C
:101EC000005E083010F0811004C08C2D0E94760551
:101ED00006C0C0948091C901C822C092C9010E9465
:101EE0007D052FC0312F3F70C32E107F103219F0A7
:101EF000C29490EFC922882089F081E0881609F405
:101F00008AC0DD2009F494C0BB2009F48AC0F7011F
:101F1000858180FFC7CF8F70858383C02091D201D8
:101F200022FF56C0DD2009F44CC0CC2039F080914E
:101F3000CA01C82AC092CA010E947D0580E00E94A1
:101F40001907E92DE850FF0B349720F40E948B030A
:101F50000E947908AA20A9F08091C70180FD11C0D4
:101F6000F70112828595859585950E94C606C70161
:101F70000E940D0D8091C7018595859585950E94DC
:101F80009E0685E0F701DE01119601900D928A957B
:101F9000E1F789819A810E9411069A81E981F0E036
:101FA0002FE0929FE00DF11D11243BE4839FE00D93
:101FB000F11D1124EE0FFF1FE455FF4F8591949101
:101FC0004ACD80E00E94E606CC2009F4BACF7DCF4E
:101FD000DD20A1F09091CB018C2D892BB11003C095
:101FE0000E94DC06AECFE1E0BE12FACF22FDA9CFFF
:101FF000981709F4A6CF8093CB01A3CFB11006C0E8
:102000000E9470058C2D0E94D5069BCFF1E0BF1673
:1020100009F497CFF5CFDD2031F025E02B1508F43A
:1020200090CF8C2DDDCF34E03B1508F48ACFEACF7A
:10203000BB2041F3F9E38F120CC12FEF37EE83E0A1
:10204000215030408040E1F700C0000002C1812FE4
:1020500086958695837061F0813009F072CFC80152
:102060009370D11002C090E080E00E945F0369CFBE
:10207000C8019370D11002C090E080E00E94750307
:1020800060CF812F837089F5D1105BCF402F4295AF
:1020900046954770440F440F802F8F70042E01C067
:1020A000880F0A94EAF7202F207104FF07C02FE061
:1020B00030E001C0220F4A95EAF720951695169553
:1020C0001370123069F050F43091CC01113029F0C6
:1020D000822B83230E94D10634CF832B822BFACF0D
:1020E000282B8091CC018227F5CF8695DD2011F039
:1020F000812F8170882309F424CF402F4295469583
:102100004770440F440F802F8F70042E01C0880F3A
:102110000A94EAF7202F207104FF07C02FE030E077
:1021200001C0220F4A95EAF720951695169513706F
:10213000123069F050F43091D001113029F0822B27
:1021400083230E949A06FDCE832B822BFACF282B65
:102150008091D0018227F5CF1F70DD2029F0812FDB
:102160000E94C606802F3CCF802F0E94D506812F6B
:102170000E949E06E6CE802F92EF8916A9F198154F
:1021800070F0E0EF8E16D1F0F1EF8F1691F0DD20B8
:1021900009F45AC0B11086CE812F8F7129C023EF68
:1021A000821649F134EF8312F2CF8091D20182FF7F
:1021B0002DC0812F8F71DD20D9F21AC0DD2079F07A
:1021C00084E08B1508F4BDCE1F7181E090E001C062
:1021D000880F1A95EAF79091D0018927B2CF95E040
:1021E0009B1508F4AECEF0CF812F8F71D110C0CFE8
:1021F0000E94C606A6CE80E0DD2009F4A2CF1F71A2
:1022000081E001C0880F1A95EAF79BCFDD2089F0A5
:102210001F71812F0E94C6068091D20182FD07C0E6
:10222000E8E01E9FC001112483608093C701812FC5
:10223000DFCF81E00E94AA06F1E0FB1508F081CE15
:1022400082E00E94AA067DCEBB2039F0893309F4D2
:10225000F4CE802F0E94E60674CE812F8F7188CF36
:1022600085E0DE01119601900D928A95E1F7F70164
:10227000228189819A81211100CC0E941106082FA8
:1022800004CC06311C45A9F5809170018111B6CDB1
:1022900089E2E0E6F1E026E631E09191891303C09E
:1022A000DF0111971C922E173F07B9F7C3CC0B35EE
:1022B0002DE5120709F4D3CD58F401158CE5180764
:1022C00009F49ECD0F3D1C45A1F40E948B0C09CC56
:1022D0000C35EDE51E0709F4C4CD0D351D4549F457
:1022E0008091D20182FB882780F991E089270E94A2
:1022F000F00CF701828110810181882309F4B3CDAC
:10230000812F902F0E94B405D82E682F812F902FF7
:102310000E943906E12FF0E02FE0029FE00DF11D51
:1023200011243BE4D39EE00DF11D1124EE0FFF1F9D
:10233000E455FF4F859194910E94F3038C01882E00
:10234000F701D280B580B2945FE0B5228091C701D9
:102350008770C1F0AD2CDD20B1F0812F807F8034FB
:1023600021F080E2800F883068F08091D20182FDF8
:1023700009C082E00E94AA068091C7018770AA2442
:10238000A3948111A12C912E92943FE09322FBE023
:10239000F91508F4D6CDE92DF0E0E956F84E0C9485
:1023A00028171F93CF93DF9380919401807FA9F426
:1023B00080919101882389F08091C601D091950187
:1023C00060918F0170919001A0919201B091930161
:1023D000C62FC72316E0D81304C0DF91CF911F91F9
:1023E000089590E0109711F0CF3F19F4019687708F
:1023F000F2CF189F9001199F300D1124F901EA5670
:10240000FE4F41814713F2CF40814613EFCF428107
:102410004111ECCF438154814A1B5B0B483C510571
:1024200028F7809194018F70806180939401F90165
:10243000E556FE4F80818F70806180838FE891E048
:102440000E940D0DDF91CF911F910C94AA05AF92C0
:10245000BF92CF92DF92EF92FF920F931F93CF9391
:10246000DF93CDB7DEB761970FB6F894DEBF0FBE2E
:10247000CDBF8C0185E0F801DE011D9601900D9223
:102480008A95E1F7F801E2808FE8A82E81E0B82E66
:1024900060919201709193016115710509F422C157
:1024A00090918F0140919001892F84238F3F09F4EF
:1024B00019C120813181C380D480F0909101F6014F
:1024C000E61BF70BFF2009F4F4C080919401582F0C
:1024D000507FE83CF10508F0B7C0511177C0FE2CE1
:1024E000431321C092131FC0E1101DC08F70806183
:1024F00080939401C5010E940D0D80919401F80113
:1025000085838F2D61960FB6F894DEBF0FBECDBFC9
:10251000DF91CF911F910F91FF90EF90DF90CF90BF
:10252000BF90AF900895CD2829F0822F83238F3F4D
:1025300009F0F3C080E0F82FF170DF2E80FF3CC07F
:102540008091C6014091950156E0841315C02D87F6
:102550003E878D859E850E94F605292F22952F7036
:102560002230F0F0243018F59F70F1F0F8019581D9
:10257000907FD1F4D12C1EC090E0589FF001599F5C
:10258000F00D1124EA56FE4F6181361306C06081BA
:10259000261303C06281E6120FC001968770D5CF63
:1025A0009F7011F0882331F3805E883018F3C801E2
:1025B0000E940D0DFD2CA5CFEE2009F4A2CF809135
:1025C0009401816080939401F12C9BCF431312C03E
:1025D000921310C0E1100EC0F8018583C8010E945B
:1025E0000D0D86E0F801AFE8B1E001900D928A95FB
:1025F000E1F787CFC8010E946506882309F1EE2024
:10260000F9F080919401803270F020918F01309127
:10261000900138872F831986DB86CA868C87CE0186
:1026200007960E940D0D86E0F801AFE8B1E0019039
:102630000D928A95E1F70E94D111FF24F39461CFA6
:10264000C8010E940D0DF9CF51110AC08FE891E029
:102650000E940D0D86E0F50111928A95E9F7B4CF3D
:1026600043130FC092130DC0E1100BC0F801858316
:10267000C8010E940D0D86E0F50111928A95E9F7D7
:1026800040CFC8010E9465068823D1F2EE20C1F236
:1026900080919401803238F220918F013091900125
:1026A0003A8329831B82DD82CC828E83CE01019600
:1026B000B8CFE83CF105F8F6FE2CEE2009F2431302
:1026C00003C0921709F48DCFC8010E9465068111DD
:1026D000AACF80919401816080939401C8010E94E7
:1026E0000D0D0FCFEE2009F4ABCFC8010E94650697
:1026F000F82E882309F4A4CF86E0F801AFE8B1E012
:1027000001900D928A95E1F780918F01909190014F
:102710000E94F6050E94D111F4CE81E08E250BCFE8
:102720001F93CF93DF93CDB7DEB767970FB6F894BB
:10273000DEBF0FBECDBF4B8B5C8B6D8B7E8B8F8BCB
:1027400061111092C9011A8A198A85E0FE017396F7
:10275000DE011D9601900D928A95E1F786E0FE015B
:102760003D96DE01179601900D928A95E1F7CE0114
:1027700007960E942712882389F016E08091C601EF
:1027800090919501891349C067960FB6F894DEBF02
:102790000FBECDBFDF91CF911F91089586E0FE015E
:1027A0003796DE01119601900D928A95E1F78A85A0
:1027B0009B85892B11F38F81988589238F3FE9F2BF
:1027C0002091950130E0C9010196877099274091C9
:1027D000C6014817190671F40E94B70810929501B6
:1027E0001092C60186E0EFE8F1E0DF011D928A95C4
:1027F000E9F7C3CF96E0929FD001939FB00D1124CB
:10280000AA56BE4FFE01319601900D929A95E1F7BE
:10281000809395010E94AA05B0CF819FC001112429
:102820008A569E4F0E942712882309F4ADCF8091CB
:10283000C60190E00196877099278093C6019ECFCC
:102840001F920F920FB60F9211242F933F934F9325
:102850005F936F937F938F939F93AF93BF93CF9328
:10286000DF93EF93FF93D091E900DF708091EC004C
:10287000C82FC17080FDC0E81092E9008091F0007F
:10288000877F8093F00078940E94C2081092E9003C
:102890008091F00088608093F000CD2BCF70C093C2
:1028A000E900FF91EF91DF91CF91BF91AF919F919F
:1028B0008F917F916F915F914F913F912F910F90E9
:1028C0000FBE0F901F9018951F920F920FB60F9288
:1028D00011242F933F934F935F936F937F938F9325
:1028E0009F93AF93BF93EF93FF938091E10082FF9B
:1028F00009C08091E20082FF05C08091E1008B7FDA
:102900008093E1008091DA0080FF24C08091D8009C
:1029100080FF20C08091DA008E7F8093DA00809162
:10292000D90080FF9DC080E189BD82E189BD09B4E5
:1029300000FEFDCF81E080930A028091FD018111AC
:1029400009C00E94AA010E9475028091E200846081
:102950008093E2008091E10080FF17C08091E20047
:1029600080FF13C08091E2008E7F8093E20080910F
:10297000E20080618093E2008091D80080628093C1
:10298000D80019BC85E080930A028091E10084FFA1
:102990002BC08091E20084FF27C080E189BD82E1E5
:1029A00089BD89B5982F917080FFFBCF8091D800A9
:1029B0008F7D8093D8008091E1008F7E8093E1002D
:1029C0008091E2008F7E8093E2008091E20081603E
:1029D0008093E20080910B02882309F447C084E0D1
:1029E00080930A0280910A028091E10083FF27C050
:1029F0008091E20083FF23C08091E100877F809374
:102A0000E10082E080930A0210920B028091E100C3
:102A10008E7F8093E1008091E2008E7F8093E200C0
:102A20008091E20080618093E20042E060E080E01B
:102A30000E9443028091F00088608093F000FF9133
:102A4000EF91BF91AF919F918F917F916F915F9126
:102A50004F913F912F910F900FBE0F901F9018959F
:102A600019BC10920A021092FD0174CF8091E3000C
:102A700087FD93E090930A02B5CF78941F921FB61A
:102A80001F9211248F939F93AF93BF938091140251
:102A900090911502A0911602B09117020196A11D06
:102AA000B11D8093140290931502A0931602B09367
:102AB0001702BF91AF919F918F911F901FBE1F90E2
:102AC00018951F921FB61F9211248F939F93AF9357
:102AD000BF938091F901811113C0809114029091EC
:102AE0001502A0911602B09117024196A11DB11DC9
:102AF0008093140290931502A0931602B0931702CC
:102B0000BF91AF919F918F911F901FBE1F901895FD
:102B1000CDB7DEB72A970FB6F894DEBF0FBECDBF94
:102B200084B7877F84BF0FB6F894A8958091600022
:102B3000886180936000109260000FBE80E890E092
:102B40000FB6F89480936100909361000FBE85B733
:102B5000806885BF85B7806885BF87E993E09093DB
:102B60005D0180935C010E94AA010E947502809120
:102B7000E20084608093E200789480910A028823C6
:102B8000A1F01091E9001F709091EC00892F8170E5
:102B900090FD80E8182B1092E9008091E80083FDF9
:102BA0000E94C2081F701093E90082E084BD93E088
:102BB00095BD9AEF97BD80936E000EE311E0D801AA
:102BC0008D918D018F3F11F00E949903B1E0033484
:102BD0001B07A9F703E411E082E5E82E81E0F82E57
:102BE000F80181918F018F3F11F00E949903E01647
:102BF000F106B1F78AE0EDEDF1E0DF01282F1D923B
:102C00002A95E9F7E3EDF1E0DF011D928A95E9F7F6
:102C100090E080E00E943617893E9E4F11F00E949E
:102C20008B0C82E090E00E942E178093E8010E94B6
:102C30007E0B9093D2018093D10183E090E00E94BB
:102C40002E170E94D10690E080E00E946E0781E07E
:102C500090E00E946E0782E090E00E946E070E9462
:102C60004E0880E091E09093F6018093F501A8E191
:102C7000CA2ED12CB0E4AB2E10E1912E02E1702EC1
:102C8000BB24BA9480910A02853059F480910A02DB
:102C9000853009F46BC00E94B7080E948B030E9424
:102CA00079080E948C0B882359F08FB7F8944091D3
:102CB00014025091150260911602709117028FBF95
:102CC0004DED51E0A2E5B1E0F9EE4F2EF1E05F2EBF
:102CD00010E000E0802EFA0121913191AF018D9139
:102CE0009D9182239323F201219131912F01281785
:102CF000390709F481C028273927612CEE24E39491
:102D0000F12CB9016E217F21672B09F46FC0698214
:102D10008A829C012E213F2191E0232B09F490E02F
:102D20009B830E9439038160782F9D838C83498126
:102D30005A816B818D810E949013000F111FF80141
:102D4000E751FE4F80819181E826F926F182E082E9
:102D50000E948B039091E701891709F493CF0E9499
:102D60008B038093E7010E9479088CCF80910A023F
:102D7000843021F180E00E9479081092F9010FB6A9
:102D8000F894A895C09260000FBEA092600083B72F
:102D9000817F846083BF83B7816083BF7894889587
:102DA00083B78E7F83BF0FB6F894A895809160009B
:102DB000886180936000109260000FBE80910902CC
:102DC000882309F463CF0E948C0BEDEDF1E0A2E5BE
:102DD000B1E0819191912D913D9182239323892B93
:102DE00009F521E0E73EF207A1F750CF6394EE0C1E
:102DF000FF1CFFE06F1285CF0F5F1F4F05301105DD
:102E000009F068CFBE82BF8218860E9439038160B4
:102E1000782F9A8789874E815F8168858A850E948D
:102E2000901396CF99BC79BC09B400FEFDCF809178
:102E3000D8008F7D8093D8008091E00082608093DD
:102E4000E0008091E00081FDFCCF0E94B7081ECF1A
:102E5000EE0FFF1F0590F491E02D0994F999FECF34
:102E600092BD81BDF89A992780B50895A8E1B0E098
:102E700042E050E00C946217262FF999FECF92BDE4
:102E800081BDF89A019700B4021639F01FBA20BD2F
:102E90000FB6F894FA9AF99A0FBE08950396272F61
:102EA0000E943D170E943C17252F0E943D17242F9A
:102EB0000C943D170196272F0E943D170C943C1748
:102EC000DC01CB01FC01F999FECF06C0F2BDE1BDEA
:102ED000F89A319600B40D9241505040B8F70895D9
:102EE000FB01DC0104C08D910190801921F4415057
:102EF0005040C8F7881B990B0895F894FFCF7706C8
:102F000077068006800682068006800680067706A1
:102F100077068706800680068706A609CE09660B17
:102F2000CE09660B010A220A660B1F0B2C0B390F08
:102F3000390F720F720F2710A10FA10FA10F4110AF
:062F4000AC10BB10BB1039
:102F46003603210835031D081908340301818283DD
:102F5600E200E900EA00B500B600B700CD00830143
:102F6600CC008A0192019401210223022402250247
:102F7600260227022A02B300B4006F007000F1F4A3
:102F8600F5F6F7343536666730313291929395947B
:0C2F96009697FF7FFF5FFF4FFD6F460C1A
:00000001FF
