:100000000C948A010C94D1010C94D1010C94D1016F
:100010000C94D1010C94D1010C94D1010C94D10118
:100020000C94D1010C94D1010C9417150C94D31499
:100030000C9414160C94D1010C94D1010C94D101A0
:100040000C94D1010C94D1010C94D1010C94D101E8
:100050000C94D1010C94F0150C94D1010C94D101A5
:100060000C94D1010C94D1010C94D1010C94D101C8
:100070000C94D1010C94D1010C94D1010C94D101B8
:100080000C94D1010C94D1010C94D1010C94D101A8
:100090000C94D1010C94D1010C94D1010C94D10198
:1000A0000C94D1010C94D1010C94D10129001E00B3
:1000B0001F0020002100220023002400250026002C
:1000C00027002D002E00310035002B0014001A00EF
:1000D0000800150017001C0018000C001200130087
:1000E0002F00300000002A00E00004001600070086
:1000F00009000A000B000D000E000F003300340051
:10010000000000002800E10000001D001B000600A8
:1001100019000500110010003600370038000000FB
:10012000E500015100000151E20000000000000064
:100130002C00000000000000E600E70000000000C6
:10014000000000003A003B003C003D003E003F0044
:1001500040004100420043004400450049004C007B
:100160003900000000000000000000000000530003
:100170004600470048005200000000000000E00078
:10018000AA00A900A800B0000000550054004A00D1
:100190004B0050004F00000000000000E100000094
:1001A00000000000000000000000570056004D0055
:1001B0004E0051000000E500000000000000E200D9
:1001C0000000000000000000000000000000E60049
:1001D000E70000000000000005010902A1018502FE
:1001E0000901A10005091901290815002501950833
:1001F000750181020501093009311581257F9502BC
:100200007508810609381581257F950175088106D5
:10021000050C0A38021581257F950175088106C0F5
:10022000C005010980A101850319012AB700150144
:1002300026B700950175108100C0050C0901A101C8
:10024000850419012AA002150126A0029501751046
:100250008100C005010906A101050719E029E7157C
:100260000025019508750181029501750881010538
:1002700007190029FF150026FF0095067508810063
:100280000508190129059505750191029501750368
:100290009101C009023B00020100A0FA090400001C
:1002A000010301010009211101000122400007059D
:1002B000810308000A09040100010300000009216C
:1002C00011010001227B000705820320000A1201B0
:1002D0000002000000089078070001000102000100
:1002E00020035900550049004F00500036003000EF
:1002F0004800480020007200650076002E0034009F
:1003000000000C036B006F0072006F006E000000B5
:100310000403090411241FBECFEFDAE0DEBFCDBF16
:1003200004B603FE27C080912C0290912D02A0916B
:100330002E02B0912F028730904BA740B04BD1F4E2
:1003400010922C0210922D0210922E0210922F0267
:1003500014BE84B7877F84BF0FB6F894A8958091A8
:100360006000886180936000109260000FBEE0E042
:10037000F8E3099511E0A0E0B1E0E2EEF2E302C09B
:1003800005900D92AC35B107D9F722E0ACE5B1E0AC
:1003900001C01D92AC32B207E1F70E943B160C94EB
:1003A0004B190C940000E8EDF0E080818E7F808393
:1003B0001092E2001092DA001092E100A0EEB0E09C
:1003C0008C9181608C9380818F77808319BCA7ED9D
:1003D000B0E08C918E7F8C9380818F7E8083109291
:1003E000120208952091E4003091E50095E6A901FC
:1003F0002091EC00822F817020FF06C08091E800E0
:1004000080FF06C080E008952091E80022FD1AC018
:1004100080911F02882389F0853089F08091EB005C
:1004200085FD0FC02091E4003091E500421753078D
:10043000F9F29150E1F684E0089582E0089583E0B6
:10044000089581E00895EF92FF920F931F93CF9349
:100450007C018B010E94F201C82F811117C080918D
:10046000E80085FD0BC08091E8008E778093E8005E
:100470000E94F201882399F3C82F08C0F7018191E7
:100480007F018093F1000150110949F78C2FCF9122
:100490001F910F91FF90EF9008958091210287FFA7
:1004A00013C08091E80082FF06C08091E8008B773E
:1004B0008093E80004C080911F028111F2CF08955B
:1004C00080911F028823D9F38091E80080FFF8CF44
:1004D0008091E8008E77ECCF982F9093E900242F3D
:1004E000762F50E0891731F07091EC002091ED00EB
:1004F0005091F00021FD07C09F5F973071F7809306
:10050000E90081E008953091EB003E7F3093EB00ED
:100510003091ED003D7F3093ED003091EB00316084
:100520003093EB007093EC002093ED005093F000BB
:100530002091EE0027FDE0CF80E00895CF92DF927A
:10054000EF92FF920F931F93CF93DF93C8EDD0E00C
:1005500088818F7E8883E7EDF0E0808181608083F1
:1005600084E082BF81E08093120288818E7F88833D
:1005700002EE10E0F80110821092DA0081EEC82E2F
:10058000D12CF601108288818F77888388818068DA
:10059000888388818F7D888319BC10921F021092F6
:1005A000200210921E0210921D0290EEE92EF12CF4
:1005B000F70180818B7F808388818160888342E01E
:1005C00060E080E00E946C02F60180818E7F808373
:1005D000F801808181608083808188608083F70159
:1005E00080818E7F8083888180618883DF91CF9135
:1005F0001F910F91FF90EF90DF90CF900895FC0135
:10060000809127029091280286179707A0F0611524
:10061000710529F49091E8009E779093E80090E0AE
:100620006115710551F4911108C08091E80082FFB5
:1006300034C080E00895BC01F2CF80911F0288236E
:10064000C1F18530C1F18091E80083FD30C0809117
:10065000E80082FDEACF8091E80080FFE1CF809141
:10066000F3002091F200382F6115710519F0283040
:10067000310558F091E02830310509F090E02091E3
:10068000E8002E772093E800CBCF81918093F10092
:10069000615071092F5F3F4FE7CF80911F02882380
:1006A00041F0853041F08091E80083FFBECF81E0CA
:1006B000089582E0089583E00895089580911402DA
:1006C00008959C014FB7F89480910B0290910C0211
:1006D000A0910D02B0910E024FBF821B930B0895A3
:1006E0002FB7F89480910B0290910C02A0910D020B
:1006F000B0910E022FBF08959C01FC0132969FEF2E
:1007000080E04191461751F09F3F19F4411101C01B
:10071000982F8F5F8630A9F79F3F09F40895290F1E
:10072000311D97FD3A95F9016283089520910802E1
:10073000309109022817390771F0909309028093CC
:100740000802E0910602F0910702309721F0008440
:10075000F185E02D0994089520910402309105025D
:100760002817390771F09093050280930402E091F5
:100770000602F0910702309721F00680F781E02D04
:1007800009940895E0910602F0910702309721F054
:100790000190F081E02D099480E008950E9470039B
:1007A0009C019091000280910102982B21F03093DE
:1007B000FD012093FC019091020280910302982B8D
:1007C00021F03093FB012093FA01E0910602F091B1
:1007D0000702309749F082E08093FE010480F581A2
:1007E000E02D8EEF91E009940895409100028D3E36
:1007F00059F48091010287FF0DC01092010241114E
:100800000BC01092F80108C08E3E81F48091010265
:1008100018169CF3442381F0809102029091030208
:10082000892B09F05AC01092F70108958F3E49F4C0
:1008300047FFF0CF10920002809101028111ECCFAE
:10084000E0CF803F19F41416ACF3E4CF909102028C
:10085000893F29F41916F4F610920202DBCF8A3F81
:1008600019F497FFD7CFF8CF909103028B3F29F46B
:1008700097FFD0CF10920302CDCF8C3F19F41916F9
:10088000CCF3C8CF9FE0980F983090F4815F990B1C
:1008900021E030E0B90102C0660F771F8A95E2F7C8
:1008A000CB0180959091FF0189238093FF01B2CF06
:1008B0008D3F31F48091F9018E7F8093F901AACFA9
:1008C0008E3F21F48091F9018D7FF7CF8F3F09F0A2
:1008D000A1CF8091F9018B7FF0CF08958091F9012C
:1008E00080FD16C081FD16C082FD16C08091F70103
:1008F0008823A1F0883280F428E0829FC00111246F
:1009000068E270E00E94CE18862F672B39F00895B8
:1009100082E0089584E0089588E0089581E00895D4
:100920008091F90180FD14C081FD14C082FD16C0C4
:100930008091F801882381F0843180F422E3829F42
:10094000C001112464E170E00E94CE18862F089542
:100950008CE0089589E1089585E0089582E3089583
:100960008D3E31F40E949004819580930102089598
:100970008E3E19F40E949004F8CF8F3E31F40E940D
:1009800090048195809300020895803F19F40E949D
:100990009004F8CF893F29F40E946E0480930202EC
:1009A00008958A3F21F40E946E048195F7CF8B3F12
:1009B00031F40E946E0481958093030208958C3F68
:1009C00019F40E946E04F8CF9FE0980F983070F4ED
:1009D000815F990B21E030E001C0220F8A95EAF790
:1009E0008091FF01822B8093FF0108958D3F31F4A8
:1009F0008091F90181608093F90108958E3F21F47F
:100A00008091F9018260F7CF8F3FB9F78091F901AA
:100A10008460F1CF80E00895F894E82FE295EF70BC
:100A2000F0E031A1282F2F7081E090E001C0880F05
:100A30002A95EAF7982F9095932391A392A1892B59
:100A400082A3789408959091C50192FF06C0282F43
:100A500028712830F9F4877F846093FF06C0282F1F
:100A600028712831F1F4877E84612091C60120FF2E
:100A700006C0382F38713830D9F4877F816021FF64
:100A800006C0282F28712831D1F4877E816194FD1A
:100A9000877E0895282F24712430F9F68B7F886093
:100AA000DCCF282F2471243101F78B7E8861DDCFC4
:100AB000382F3171313019F78E7F8860E0CF282FC1
:100AC0002171213121F78E7E8861E1CFCF93DF93B1
:100AD000EC018238910581F1B0F58133910509F47B
:100AE00091C020F58932910509F485C08A9709F4EF
:100AF00090C0C11520E5D20708F0A7C0C11530E4A9
:100B0000D30708F0F6C0CF3BD10508F089C0C83A3A
:100B1000D10508F0E1C0C53AD10508F0D5C0C43010
:100B2000D105F8F4C130D105E1F040C0853391051D
:100B300009F45AC0C997E9F68091C501837089F01C
:100B4000C0EED0E00EC0833E910599F170F4803E76
:100B5000910501F1823E910561F68091C50182FD0A
:100B600021C0CE01DF91CF910895863E910561F1BC
:100B7000873E910571F1843E910509F0BACF8091CD
:100B8000C60181FFEECF8091C501C7EED0E084FDA4
:100B90000DC0E7CF8091C50180FDFEC09091C601D8
:100BA00090FFDFCFC3EED0E084FFDBCFD0E0C0E02A
:100BB000D8CF8091C50182FDF2C09091C60190FD11
:100BC000BFCF84FFCECFF2CF8091C50183FDDDCFB3
:100BD000C8CF8091C50183FDE5C09091C60191FF0A
:100BE000F0CFC4EED0E0BDCF8091C50185FFB9CF75
:100BF000C9E2D0E0B6CF8091C50185FFB2CFC5E391
:100C0000D0E0AFCF8091C50186FFABCFCAE2D0E084
:100C1000A8CF8091C50186FFA4CFC1E3D0E0A1CFCA
:100C2000CF3FD10509F058F4CD3ED10508F05FC0A3
:100C3000CE01805E9109089708F493CFB7CFC11514
:100C400040E2D40708F48DCFB1CFC11584E5D807B1
:100C5000A0F4C11593E5D90708F07CC0C11522E5C1
:100C6000D20708F066C0C11531E5D30708F444C0C7
:100C7000DC2FCC27C16FD06A74CFC1154AE5D407E9
:100C800078F4C11589E5D80708F078C0C11598E552
:100C9000D90708F48BCFDC2FCC27C06FD06A61CF87
:100CA000CE0190568115904208F080CF8D2F8F7124
:100CB0000E94230590E0982F882788279F719C0128
:100CC0002C2BE901D0624DCFC55AD0E0C35FDE4F77
:100CD000C881D0E0D06445CFC85AD0E0CC0FDD1F2A
:100CE000C05FDE4F0990D881C02DD4643ACFD06563
:100CF00038CFDF70D06A35CFCE0164E09695879506
:100D00006A95E1F783702C2F26952695237040E293
:100D1000249F90011124382B8C2F8370C1E0D0E0E8
:100D200002C0CC0FDD1F8A95E2F7C22BD32BDC6803
:100D300018CFCE018370992721E030E002C0220F46
:100D4000331F8A95E2F7C695C69580E2C89FE001F9
:100D50001124EBCFCE018370992721E030E002C04F
:100D6000220F331F8A95E2F7C695C69590E2C99F78
:100D7000E0011124C22BD32BDA68F3CE8C2F8F70B5
:100D80000E94230534E0D695C7953A95E1F7CF70D8
:100D90009C2FEC01D069E5CEC9E3D0E0E2CEC2EEF3
:100DA000D0E0DFCEC6EED0E0DCCE8091BF019091E6
:100DB000BE01892B9091BD01892B80935E01E0914A
:100DC0000602F0910702309731F00280F381E02DA6
:100DD0008EE591E0099408958091BC0190918B017A
:100DE000981301C008958F5F8770FACFCF92DF927A
:100DF000EF92FF920F931F93CF93DF93E090C40184
:100E00002091C001E22AC7E0D0E0F12C082F10E0C9
:100E10002FE0929F000D111D11249BE4C92EDC2EA2
:100E2000C7010C2E02C0959587950A94E2F780FDC4
:100E30000DC02197A0F7D12C8D2DDF91CF911F915F
:100E40000F91FF90EF90DF90CF900895CC9EF0012E
:100E5000CD9EF00D1124E00FF11FEE0FFF1FE455A2
:100E6000FF4F859194910E946605019711F3E4CF9D
:100E7000CF93DF93EC010E94F606EC2FF0E09FE0A9
:100E8000D99FE00DF11D11249BE4899FE00DF11D18
:100E90001124EE0FFF1FE455FF4F85919491DF91D0
:100EA000CF910C9466052FE0929F800D1124982F0E
:100EB000977086958695869523E0829FF001112490
:100EC000E959FE4F50E040E080E0219130E0092EEA
:100ED00002C0369527950A94E2F721703327042E35
:100EE00001C0220F0A94EAF7822B4F5F5F4F433015
:100EF000510559F708952FE0929F800D1124982FE6
:100F0000977041E001C0440F9A95EAF7869586955F
:100F1000869593E0899FF0011124E959FE4F90E0F6
:100F200080E070E05191DF0111979B01082E02C013
:100F3000369527950A94E2F72170219525272423D9
:100F400025272C9301968330910561F70895FC01C4
:100F5000808191810E943807292F2F7092959F7070
:100F600092509E3078F4E92FF0E0E35BF64E0C945B
:100F7000E218803F19F020F4883E20F481E00895C3
:100F8000843FE1F380E00895883EC0F3813FD1F7CC
:100F9000F5CF822F869586958695089590E080E01E
:100FA0000E94AC0390E080E00E9496031092BE0184
:100FB0001092BD010E94D50686E0EEEFF1E0DF0160
:100FC0001D928A95E9F71092F8011092F70110929C
:100FD000F9010C94CE038093C4010C94CE0721E058
:100FE00030E001C0220F8A95EAF720958091C40174
:100FF00082230C94EB0721E030E001C0220F8A9598
:10100000EAF78091C401822B0C94EB078093C00116
:101010000C94CE07882341F080959091BF018923DD
:101020008093BF010C94D5060895882339F09091E0
:10103000BF01982B9093BF010C94D5060895882387
:10104000F1F19CEF980F913A78F4E0E6F1E026E6B2
:1010500031E09191891303C0DF0111971C922E1783
:101060003F07B9F70C94D50690E2980F983088F4B2
:10107000877021E030E0A90102C0440F551F8A9516
:10108000E2F7CA0180959091BF0189238093BF0147
:10109000E9CF9BE5980F933020F490E080E00C942A
:1010A000AC0398E5980F973120F490E080E00C9421
:1010B00096038D3E20F00E94F5030C94CE03089514
:1010C000CF93C82F882309F456C08CEF8C0F813A38
:1010D000F8F4E0E6F1E086E691E0DF012D91C21739
:1010E00059F08A179B07D1F76C2F8EE591E00E948B
:1010F0007C03CF910C94D5062191C21303C0DF016C
:1011000011971C928E179F07B9F70E94D506ECCF56
:1011100080E28C0F883068F4C77021E030E001C0B5
:10112000220FCA95EAF78091BF01822B8093BF01FD
:10113000E0CFEBE5EC0FE33040F4F0E0E35FFE4F8F
:10114000808190E0CF910C94AC03E8E5EC0FE7319F
:1011500050F4F0E0EE0FFF1FE05FFE4F80819181C1
:10116000CF910C949603CD3E30F08C2F0E94B004AA
:10117000CF910C94CE03CF9108950F93FC01EE0F05
:10118000FF1FE80FF91FEE52FE4F002341F040838E
:101190006183228381E08093D1010F9108951082B1
:1011A00011821282F7CF0F931F93CF93DF93C62F35
:1011B000D42F022FFC0182818823A1F060932B029F
:1011C0000E94700390932A0280932902C77081E0E5
:1011D00001C0880FCA95EAF7DF91CF911F910F9157
:1011E0000C94150880912B02681338C08091290255
:1011F00090912A020E946103883C910578F510E2E3
:101200001D0FCD17B9F080E28C0F883040F4C77005
:1012100081E001C0880FCA95EAF70E940A081830D9
:1012200048F481E09D2F977001C0880F9A95EAF7E6
:101230000E941508802F0E946008802F0E941F08BE
:10124000183098F4D77081E001C0880FDA95EAF77A
:10125000DF91CF911F910F910C940A08C77081E024
:1012600001C0880FCA95EAF7F3CFDF91CF911F91A4
:101270000F91089580930F027093110260931002F2
:1012800080911F02843001F582E08093E9008FEFA6
:101290009091E800815095FD06C095ED9A95F1F783
:1012A00000008111F5CF8091E80085FF0DC050E06E
:1012B00040E063E070E08FE092E00E9423028091C2
:1012C000E8008E778093E8000895BC0184E00C94D8
:1012D0003A09BC0183E00C943A099C0182E08093B6
:1012E000E9009FEF8091E800915085FD06C085EDF3
:1012F0008A95F1F700009111F5CF8091E80085FF04
:101300000CC050E040E066E070E0C9010E9423029A
:101310008091E8008E778093E8000895CF93DF9363
:10132000EC0181E08093E9008FEF9091E80081501B
:1013300095FD06C095ED9A95F1F700008111F5CF66
:101340008091E80085FF14C050E040E068E070E064
:10135000CE010E9423028091E8008E778093E800FE
:1013600088E0FE01A5E1B2E001900D928A95E1F7D7
:10137000DF91CF9108958091D101882331F1239A93
:1013800035B1377F25B128604FB7F89482ED91E0F1
:10139000FC015191CF0168E025B9000000C057FF62
:1013A00035B9550F000000C000C000C035B900C0FD
:1013B0006A9591F7F1E0813E9F0751F74FBF8FE5A6
:1013C00094E00197F1F700C000000895FF920F9399
:1013D0001F93CF93DF93182F117082FBFF24F0F837
:1013E00083FBDD27D0F984FBCC27C0F981FB0027E4
:1013F00000F920E040E06FEF90E080E00E94BD083F
:101400000F2D2CEC40E06CEC81E090E00E94BD08D8
:10141000012F2FEF40E060E082E090E00E94BD08E5
:101420000D2F2CEC4CEC60E083E090E00E94BD08B6
:101430000C2F20E04FEF60E084E090E00E94BD08B8
:10144000DF91CF911F910F91FF900C94BB091092E7
:10145000BF01E0E6F1E086E0DF011D928A95E9F741
:101460000C94CE071F93CF93DF93CDB7DEB7AA9727
:101470000FB6F894DEBF0FBECDBF81E292E020919F
:10148000F100FC012193CF01F2E089329F07B9F707
:1014900080912202833009F470C0B8F4813009F4DD
:1014A00047C0823009F4B1C08091E80083FF7EC25A
:1014B00080912102909122029A3008F077C2E92FA0
:1014C000F0E0E55AF64E0C94E2188A3009F48CC02C
:1014D0008B3009F46FC0893039F780912102813255
:1014E00019F780912502909126020297E8F68091E3
:1014F000E800877F8093E8008091E80082FF38C091
:101500009091F3008091F200029731F48091F10004
:10151000813011F0863021F48091F1008093140223
:101520008091E8008B778093E8000E944D02BCCF49
:1015300080912102813A09F0B7CF8091E800877F3E
:101540008093E8008091250290912602892B61F416
:1015500068E085E192E070E00E94FF028091E8007F
:101560008B778093E800A0CF60E090E080E0F3CF3D
:1015700080911F028111C0CF97CF80912102813AC3
:1015800009F092CF8091250290912602892B09F0D3
:101590008BCF8091E800877F8093E8008091E800FE
:1015A00080FFFCCF80910C018093F1008091E800D6
:1015B0008E77B9CF80912102813209F075CF809169
:1015C000250290912602892B09F06ECF8091E800C8
:1015D000877F8093E8000E944D02809123028093D0
:1015E0000C010E94270A60CF80912102813209F00C
:1015F0005BCF8091E800877F8093E8000E944D02D6
:1016000080912402809313024FCF80912102813A6E
:1016100009F04ACF8091E800877F8093E8008091AD
:10162000E80080FFFCCF80911302BECF803899F094
:10163000823809F0BBC1809125028F70873008F095
:10164000B5C18093E9008091EB0085FB882780F984
:101650001092E90006C080911D0290911E02911126
:1016600082609091E800977F9093E8008093F1006A
:101670001092F1008091E8008E7794C1882309F4DC
:1016800082C1823009F092C180912302811185C10B
:10169000809125028F702FEF280F263008F086C129
:1016A0008093E9002091EB0020FF77C1933031F463
:1016B0008091EB0080628093EB006FC19091EB0012
:1016C00090619093EB0021E030E001C0220F8A95F9
:1016D000EAF72093EA001092EA008091EB0088601C
:1016E000EACF811163C1109123021F778091E3003B
:1016F0008078812B8093E3008091E800877F80933E
:10170000E8000E944D028091E80080FFFCCF8091AC
:10171000E30080688093E30082E0111183E080930E
:101720001F0244C18058823008F040C180912302DA
:10173000909124028C3D23E09207A1F583E08A83F7
:101740008AE289834FB7F894DE01139620E03EE0E9
:1017500051E2E32FF0E050935700E49120FF03C0E3
:10176000E295EF703F5FEF708E2F90E0EA30C0F0AF
:10177000C7968D939D932F5F243159F74FBF80916A
:10178000E800877F8093E8006AE270E0CE0101966E
:101790000E94FF028091E8008B778093E80006C1E9
:1017A000C096E7CF4091250250912602292F33277A
:1017B0002330310509F444C078F52130310509F4AE
:1017C0006FC08BE390E0E3E9F2E02230310509F0ED
:1017D000EDC02091E800277F2093E80020912702A8
:1017E000309128028217930708F49C0140E02115EC
:1017F000310509F064C0411162C08091E80082FDAA
:10180000C9CF80911F02882329F2853019F2809177
:10181000E80083FFF2CFBECF21323105A9F1223299
:10182000310509F0C3C04115510509F443C04130E9
:10183000510509F0BBC08BE790E0E8EDF1E0C9CFBE
:10184000992781309105C1F0009759F0029709F06E
:10185000ADC0E0EEF2E0E4918E2F90E0E0EEF2E039
:1018600007C0E0E1F3E0E4918E2F90E0E0E1F3E0E7
:10187000009709F49BC0ADCFE2E0F3E0E4918E2F36
:1018800090E0E2E0F3E0F4CF4115510571F0413012
:10189000510509F08BC089E090E0EEEBF2E099CFC2
:1018A00082E190E0EEECF2E094CF89E090E0E5EAAE
:1018B000F2E08FCF80E490E0E3E5F2E08ACF809120
:1018C0001F02882309F466CF853009F463CF809125
:1018D000E80083FD5FCF8091E80082FD8ECF80918C
:1018E000E80080FF84CF9091F3008091F2002115F1
:1018F000310519F08830910550F041E0089709F062
:1019000040E08091E8008E778093E80070CF4491AA
:101910004093F1003196215031090196E8CF80388B
:1019200009F044C08091E800877F8093E8008091AF
:1019300020028093F1009ECE811138C010912302C5
:101940001230A0F58091E800877F8093E800109323
:1019500020020E944D02112311F084E005C0809105
:10196000E30087FDFACF81E080931F0242E061EC43
:1019700081E00E946C0242E261EC82E00E946C0213
:1019800080911F0213C080912302813079F481E09D
:10199000933009F080E080931E021092E90080915C
:1019A000E800877F8093E8000E944D028091E80064
:1019B00083FF0AC08091E800877F8093E8008091D0
:1019C000EB0080628093EB00AA960FB6F894DEBF1E
:1019D0000FBECDBFDF91CF911F910895CF9384E0CB
:1019E00090E00E94FC18C82F82E290E00E94FC1850
:1019F000982F8C2FCF9108954F925F926F927F9284
:101A00008F929F92AF92BF92CF92DF92EF92FF920E
:101A10000F931F93CF93DF93CDB7DEB72A970FB6FF
:101A2000F894DEBF0FBECDBF8E010F5F1F4F8AE05F
:101A3000F80111928A95E9F79EE3E92E91E0F92EDB
:101A4000680123E4422E21E0522E66246394712C17
:101A500042E5842E41E0942EF70181917F018F3F72
:101A600009F445C0F894E82FE295EF70F0E021A169
:101A70008F70A30102C0440F551F8A95E2F7CA0177
:101A8000922F982B91A392A18095892382A3789479
:101A900000C0E3E4F1E021E030E0B12CA12C419161
:101AA0004F3F09F47EC0A42FA295AF70B0E090968E
:101AB0008C9190E04F7002C0959587954A95E2F71A
:101AC00080FD6FC0C901A82AB92A220F331F8E16C4
:101AD0009F0629F7F701319780818F3F11F00E940F
:101AE0000C0550EA5A95F1F7F601B182A082F2E0B6
:101AF000CF0ED11C4E145F0409F0AECF4AE050E087
:101B0000B80187EC91E00E943E19FF24F3940097FE
:101B100009F4F12C892B09F447C08AE0F801A7ECFD
:101B2000B1E001900D928A95E1F781E08093C301C5
:101B30000E9470039093C2018093C1018091C10102
:101B40009091C2010E946103059790F18091C701B5
:101B50009091C8019093E2018093E1018091C901C5
:101B60009091CA019093E4018093E3018091CB01AD
:101B70009091CC019093E6018093E5018091CD0195
:101B80009091CE019093E8018093E7018091CF017D
:101B90009091D0019093EA018093E9011092C301E2
:101BA00007C090E080E08FCF8091C3018111C6CF44
:101BB0008F2D2A960FB6F894DEBF0FBECDBFDF91F2
:101BC000CF911F910F91FF90EF90DF90CF90BF903A
:101BD000AF909F908F907F906F905F904F900895FF
:101BE00069EE7EEF90E080E00E94281960E082E0DC
:101BF00090E00E940A1960E083E090E00E940A19D8
:101C00001092C00160E084E090E00E940A1960E058
:101C100082E290E00E940A1960E085E090E00E9474
:101C20000A1960E086E090E00E940A196FEF87E0F1
:101C300090E00E940A1940E050E0BA0188E090E08C
:101C40000E941C1960E08DE090E00E940A1940E0BB
:101C500050E0BA0188E190E00E941C1960E087E141
:101C600090E00E940A1940E050E0BA018CE190E057
:101C70000E941C1970E060E080E290E00E94281948
:101C800040E050E0BA0188E190E00E941C1940E079
:101C900050E0BA018FE090E00E941C1940E050E053
:101CA000BA0183E190E00C941C19BF92CF92DF92AD
:101CB000EF92FF920F931F93CF93DF9300D000D04A
:101CC0000F92CDB7DEB77C01FC0183819481892B13
:101CD00039F01081D180812F8D218F3F09F0ABC366
:101CE0000F900F900F900F900F90DF91CF911F9159
:101CF0000F91FF90EF90DF90CF90BF9008950E94DA
:101D0000F606082F682F89819A810E947B07E12FB0
:101D1000F0E02FE0D29EE00DF11D11244BE4049F72
:101D2000E00DF11D1124EE0FFF1FE455FF4F05914B
:101D30001491043F5CE5150709F490C010F5093DC6
:101D40009CE5190709F486C00A3DECE51E0709F475
:101D500091C0083DFCE51F0711F526E241EE61EE5A
:101D6000C7010F900F900F900F900F90DF91CF91C0
:101D70001F910F91FF90EF90DF90CF90BF900C9448
:101D8000D308063F2CE5120709F470C008F46AC0B6
:101D900027E245EE66EE073F5CE5150709F3F7011C
:101DA0008281882309F458C310922B020430FDE588
:101DB0001F0708F062C00B3F2CE5120738F49801AA
:101DC00022503C452431310508F05CC00E94EE0CE5
:101DD0009093C6018093C50100315CE5150709F4B5
:101DE00030C108F0A8C008309CE5190709F417C1F4
:101DF00008F07CC00430FCE51F0709F4FEC008F0C1
:101E000065C002304CE5140709F4F1C08091C501AA
:101E1000826003301C4509F4EDC06091C50110914A
:101E2000C60184E090E00E940A19612F82E290E0EE
:101E30000E940A190F900F900F900F900F90DF9152
:101E4000CF911F910F91FF90EF90DF90CF90BF90B7
:101E50000C94270A27E245EE65EE82CF26E241EE9A
:101E600060EE7ECF27E245EE64EE7ACF26E241EEC9
:101E700062EE76CF28E241E0EFCF02364DE514075F
:101E800009F4A4CF0631FCE51F0709F0FBC28091DD
:101E9000BF018A7A91E009F490E09093660169E2CB
:101EA000811165E38EE591E00E947C030F900F9015
:101EB0000F900F900F90DF91CF911F910F91FF9096
:101EC000EF90DF90CF90BF900C94D50606308CE554
:101ED000180709F4A0C08091C501886007301C452F
:101EE00008F488C08091C501806284C08091C501DA
:101EF0008D7F0C30ECE51E0709F47CC070F48091F6
:101F0000C5018C600A302CE5120709F473C008F48F
:101F10008AC08091C5018E7F6DC08091C501877F89
:101F20000E305CE5150709F465C008F482C08091A5
:101F3000C5018F7E5FC00D3F9CE5190709F47DC088
:101F400068F50431FCE51F0709F48FC080F4023105
:101F50004CE5140709F479C08091C5018F7B0331EA
:101F60001C4508F447C08091C501837F43C00B3FE7
:101F70008CE5180709F445C008F049C005311C4537
:101F800009F04BCF8091C50182FB992790F921E0A0
:101F9000922790FB82F990FB83F92CC00130FDE57C
:101FA0001F0709F458C088F48091C60183600F3F71
:101FB0004CE5140749F18091C6018D7F01151D453F
:101FC00018F18091C6018C7F1FC003308DE5180782
:101FD00009F45AC008F452C002361D4509F01DCF5D
:101FE0009091C501892F8F7E94FF806103C08091FD
:101FF000C50181608093C50110CF8091C5018460C7
:10200000F9CF8091C60181608093C60106CF80918F
:10201000C6018260F9CF8091C5018061EBCF8091CC
:10202000C5018064E7CF0E94270A8091C5018068BE
:10203000E1CF8091C5018B7FDDCF8091C6018E7F7E
:10204000E3CF8091C5018F7DD5CF0E94270A809173
:10205000C5018F77CFCF8091C601982F9095917051
:102060008E7F892B90FB81F9CFCF0E94270A909118
:10207000C501892F97FB87F98058BCCF61E08EE0BE
:1020800090E00E940A19C9CE60E0F9CF85E3ECC167
:102090000E94270A2FEF44E35CE02150404050406B
:1020A000E1F700C0000081E08093E00080E28093CF
:1020B000D8001092C9008FE19EE40197F1F700C0AB
:1020C000000087E090EBDC0180932C0290932D02BE
:1020D000A0932E02B0932F0288E19CE00FB6F894F3
:1020E000A895809360000FBE90936000FFCF0F9083
:1020F0000F900F900F900F90DF91CF911F910F9144
:10210000FF90EF90DF90CF90BF900C94F00D812F57
:10211000902F0E945307D82ECEC1092F0F70907FA9
:1021200011F00295007F812F2223C9F0002369F06E
:1021300090E2910F983010F011110BC08091BF0107
:10214000082B0093BF010E94D506812F0E946008D2
:1021500017C08091BE01082B0093BE01F4CF0E94EE
:102160001F08002369F00095105E183010F0B110C0
:1021700032C08091BF0108230093BF010E94D506A1
:10218000E8E0CE1AD108F4E0CF16D10420F40E9482
:10219000C2030E94E60985E0F701DE011196019075
:1021A0000D928A95E1F789819A810E9453079A815D
:1021B000E981F0E02FE0929FE00DF11D11244BE446
:1021C000849FE00DF11D1124EE0FFF1FE455FF4F1A
:1021D0008591949185CD8091BE0108230093BE0125
:1021E000CDCF892F8F70907F903211F08295807FB4
:1021F000F1E0BF120EC0222331F0363008F0C0CF1C
:102200000E941508BDCF353008F0BACF0E940A08E9
:10221000B7CF222341F0332399F340FF96CF4F707D
:10222000F7014583EDCF332389F3193349F4FFEFE9
:1022300027EE43E0F15020404040E1F700C00000AD
:10224000812F0E941F089CCF892F869586958370C9
:1022500061F0813009F094CF812F9370211102C079
:1022600090E080E00E9496038BCF812F9370211124
:1022700002C090E080E00E94AC0382CF812F222335
:1022800029F00E94B0040E94CE037ACF0E94F50389
:10229000FACF892F8370A1F5211172CF812F8295FA
:1022A00086958770880F880F412F4F70082E01C0C8
:1022B000440F0A94EAF7212F207114FF07C02FE082
:1022C00030E001C0220F8A95EAF720959695969501
:1022D0009370923081F0822F842B933030F4809170
:1022E000C001913029F0242B82230E94060848CF98
:1022F000842B822BFACF242B8091C0018227F5CF2B
:102300008695222311F0892F8170882309F438CF14
:10231000812F829586958770880F880F412F4F7087
:10232000082E01C0440F0A94EAF7212F207114FFF0
:1023300007C02FE030E001C0220F8A95EAF7209510
:10234000969596959370923081F0822F842B9330DE
:1023500030F48091C401913029F0242B82230E9413
:10236000EB070ECF842B822BFACF242B8091C40154
:102370008227F5CF092F0F70222329F0802F0E948A
:10238000FB07812F3DCF812F0E940A08802F0E94DA
:10239000EF07F6CE812F51EF151789F1511750F045
:1023A000E0EF1E17B9F02223B1F13111CECE892F03
:1023B0008F7129C0F2EF1F1749F143EF1413F3CFC8
:1023C00080E0222361F29F7181E001C0880F9A951D
:1023D000EAF7C5CF222379F0353008F0D1CE292F86
:1023E0002F7181E090E001C0880F2A95EAF7909163
:1023F000C4018927B4CF363008F0C2CEF0CF892F80
:102400008F71222321F20E94FB07BACE892F8F7190
:102410002223C9F3BCCF332359F0893309F010CFFD
:102420005FEF87EE93E0515080409040E1F706CF98
:10243000892F8F71ACCF85E0DE01119601900D924E
:102440008A95E1F7F701228189819A81211157CC80
:102450000E945307082F5BCC06311C45E1F48091A4
:102460006601811113CE89E2E0E6F1E026E631E073
:102470009191891303C0DF0111971C922E173F071A
:10248000B9F714CD01152CE5120709F401CE0F3D63
:102490001C4509F42CCEF70110810181882309F431
:1024A00036CE812F902F0E94F606D82E682F812FCE
:1024B000902F0E947B07E12FF0E02FE0029FE00DBC
:1024C000F11D11244BE4D49EE00DF11D1124EE0FFB
:1024D000FF1FE455FF4F859194910E946605182FC8
:1024E000B82EF70122814581342F32953F70892F14
:1024F00082958F70C82ED12C8C3008F041CEF60119
:10250000EB59F64E0C94E2181F93CF93DF93809112
:102510008A01807FA9F480918701882389F08091C6
:10252000BC01D0918B016091850170918601A091D1
:102530008801B0918901C62FC72316E0D81304C0C3
:10254000DF91CF911F91089590E0109711F0CF3F48
:1025500019F401968770F2CF189F9001199F300DE2
:102560001124F901E457FE4F41814713F2CF408116
:102570004613EFCF42814111ECCF438154814A1B76
:102580005B0B483C510528F780918A018F70806170
:1025900080938A01F901EF56FE4F80818F70806130
:1025A000808385E891E00E94550EDF91CF911F91C5
:1025B0000C94EC06AF92BF92CF92DF92EF92FF9213
:1025C0000F931F93CF93DF93CDB7DEB761970FB60D
:1025D000F894DEBF0FBECDBF8C0185E0F801DE01AF
:1025E0001D9601900D928A95E1F7F801E28085E849
:1025F000A82E81E0B82E6091880170918901611543
:10260000710509F422C19091850140918601892FBD
:1026100084238F3F09F419C120813181C380D48084
:10262000F0908701F601E61BF70BFF2009F4F4C0D8
:1026300080918A01582F507FE83CF10508F0B7C01F
:10264000511177C0FE2C431321C092131FC0E1101B
:102650001DC08F70806180938A01C5010E94550E54
:1026600080918A01F80185838F2D61960FB6F894C9
:10267000DEBF0FBECDBFDF91CF911F910F91FF90B5
:10268000EF90DF90CF90BF90AF900895CD2829F0C4
:10269000822F83238F3F09F0F3C080E0F82FF17081
:1026A000DF2E80FF3CC08091BC0140918B0156E041
:1026B000841315C02D873E878D859E850E9438071F
:1026C000292F22952F702230F0F0243018F59F70BA
:1026D000F1F0F8019581907FD1F4D12C1EC090E0EB
:1026E000589FF001599FF00D1124E457FE4F61816E
:1026F000361306C06081261303C06281E6120FC044
:1027000001968770D5CF9F7011F0882331F3805EDA
:10271000883018F3C8010E94550EFD2CA5CFEE207D
:1027200009F4A2CF80918A01816080938A01F12C03
:102730009BCF431312C0921310C0E1100EC0F801DA
:102740008583C8010E94550E86E0F801A5E8B1E036
:1027500001900D928A95E1F787CFC8010E94A707E3
:10276000882309F1EE20F9F080918A01803270F01F
:10277000209185013091860138872F831986DB8669
:10278000CA868C87CE0107960E94550E86E0F80116
:10279000A5E8B1E001900D928A95E1F70E948412BC
:1027A000FF24F39461CFC8010E94550EF9CF511157
:1027B0000AC085E891E00E94550E86E0F50111926D
:1027C0008A95E9F7B4CF43130FC092130DC0E110FF
:1027D0000BC0F8018583C8010E94550E86E0F50103
:1027E00011928A95E9F740CFC8010E94A707882374
:1027F000D1F2EE20C1F280918A01803238F220912C
:102800008501309186013A8329831B82DD82CC8247
:102810008E83CE010196B8CFE83CF105F8F6FE2C88
:10282000EE2009F2431303C0921709F48DCFC801BB
:102830000E94A7078111AACF80918A0181608093AD
:102840008A01C8010E94550E0FCFEE2009F4ABCFCC
:10285000C8010E94A707F82E882309F4A4CF86E0B8
:10286000F801A5E8B1E001900D928A95E1F7809119
:102870008501909186010E9438070E948412F4CE4F
:1028800081E08E250BCF1F93CF93DF93CDB7DEB7BB
:1028900067970FB6F894DEBF0FBECDBF4B8B5C8B36
:1028A0006D8B7E8B8F8B61111092BE011A8A198AF3
:1028B00085E0FE017396DE011D9601900D928A95CA
:1028C000E1F786E0FE013D96DE01179601900D923C
:1028D0008A95E1F7CE0107960E94DA12882389F0E3
:1028E00016E08091BC0190918B01891349C06796D5
:1028F0000FB6F894DEBF0FBECDBFDF91CF911F9111
:10290000089586E0FE013796DE01119601900D9242
:102910008A95E1F78A859B85892B11F38F819885AC
:1029200089238F3FE9F220918B0130E0C9010196A4
:10293000877099274091BC014817190671F40E94CD
:10294000270A10928B011092BC0186E0E5E8F1E0C5
:10295000DF011D928A95E9F7C3CF96E0929FD001DF
:10296000939FB00D1124A457BE4FFE0131960190E4
:102970000D929A95E1F780938B010E94EC06B0CFFF
:10298000819FC001112484579E4F0E94DA12882330
:1029900009F4ADCF8091BC0190E001968770992732
:1029A0008093BC019ECF1F920F920FB60F921124FD
:1029B0002F933F934F935F936F937F938F939F9347
:1029C000AF93BF93CF93DF93EF93FF93D091E90041
:1029D000DF708091EC00C82FC17080FDC0E81092BC
:1029E000E9008091F000877F8093F00078940E9446
:1029F000320A1092E9008091F00088608093F00024
:102A0000CD2BCF70C093E900FF91EF91DF91CF9173
:102A1000BF91AF919F918F917F916F915F914F91F6
:102A20003F912F910F900FBE0F901F9018951F92FE
:102A30000F920FB60F9211242F933F934F935F93F2
:102A40006F937F938F939F93AF93BF93EF93FF9376
:102A50008091E10082FF09C08091E20082FF05C001
:102A60008091E1008B7F8093E1008091DA0080FF0C
:102A700024C08091D80080FF20C08091DA008E7F32
:102A80008093DA008091D90080FF9DC080E189BDEC
:102A900082E189BD09B400FEFDCF81E080931F0271
:102AA00080911202811109C00E94D3010E949E02EE
:102AB0008091E20084608093E2008091E10080FFD9
:102AC00017C08091E20080FF13C08091E2008E7FEA
:102AD0008093E2008091E20080618093E200809127
:102AE000D80080628093D80019BC85E080931F02D3
:102AF0008091E10084FF2BC08091E20084FF27C019
:102B000080E189BD82E189BD89B5982F917080FFF0
:102B1000FBCF8091D8008F7D8093D8008091E10019
:102B20008F7E8093E1008091E2008F7E8093E200AF
:102B30008091E20081608093E200809120028823EE
:102B400009F447C084E080931F0280911F028091A6
:102B5000E10083FF27C08091E20083FF23C08091C2
:102B6000E100877F8093E10082E080931F02109252
:102B700020028091E1008E7F8093E1008091E2004D
:102B80008E7F8093E2008091E20080618093E2007A
:102B900042E060E080E00E946C028091F00088607A
:102BA0008093F000FF91EF91BF91AF919F918F9132
:102BB0007F916F915F914F913F912F910F900FBE39
:102BC0000F901F90189519BC10921F0210921202BC
:102BD00074CF8091E30087FD93E090931F02B5CFFF
:102BE00078941F921FB61F9211248F939F93AF93D7
:102BF000BF9380910B0290910C02A0910D02B091B5
:102C00000E020196A11DB11D80930B0290930C0240
:102C1000A0930D02B0930E02BF91AF919F918F913F
:102C20001F901FBE1F9018951F921FB61F92112450
:102C30008F939F93AF93BF9380910A02811113C02A
:102C400080910B0290910C02A0910D02B0910E02A6
:102C50004196A11DB11D80930B0290930C02A0938D
:102C60000D02B0930E02BF91AF919F918F911F9073
:102C70001FBE1F901895CDB7DEB760970FB6F894BA
:102C8000DEBF0FBECDBF84B7877F84BF0FB6F89479
:102C9000A895809160008861809360001092600028
:102CA0000FBE80E890E00FB6F89480936100909397
:102CB00061000FBE85B7806885BF85B7806885BF16
:102CC0008AE095E090935D0180935C010E94D301BE
:102CD0000E949E028091E20084608093E2007894DA
:102CE00080911F028823A1F01091E9001F7090913C
:102CF000EC00892F817090FD80E8182B1092E9007C
:102D00008091E80083FD0E94320A1F701093E90051
:102D100082E084BD93E095BD9AEF97BD80936E00ED
:102D20000EE311E0D8018D918D018F3F11F00E94CB
:102D30000C05B1E003341B07A9F703E411E0F80127
:102D400081918F018F3F11F00E940C05F1E0023557
:102D50001F07A9F78AE0E1EEF1E0DF01282F1D92BD
:102D60002A95E9F7E7ECF1E0DF011D928A95E9F792
:102D700090E080E00E940419893E9E4F11F00E946D
:102D8000F00D82E090E00E94FC188093EC010E941C
:102D9000EE0C9093C6018093C50183E090E00E9401
:102DA000FC180E9406081092D2011092D3011092D2
:102DB000D4011092D5011092D6011092D701109231
:102DC000D8011092D9011092DA011092DB01109211
:102DD000DC011092DD011092DE011092DF011092F1
:102DE000E00181E08093D1010E94BB0980E091E085
:102DF0009093070280930602A8E1CA2ED12CB0E47A
:102E00009B2E10E1A12E02E1B02E80911F02853091
:102E100059F480911F02853009F433C10E94270ABA
:102E20000E94C2030E94E6090E94FC0C882359F00C
:102E30008FB7F89440910B0250910C0260910D02F3
:102E400070910E028FBFF1EE4F2EF1E05F2EA2E5E2
:102E5000B1E04DEE51E010E000E0702EF201219162
:102E600031912F018D919D9182239323FA0121911C
:102E70003191AF012817390709F449C128273927AB
:102E8000812CEE24E394F12CB70162237323672B8A
:102E900009F437C18F82788697012823392391E07E
:102EA000232B09F490E099870E9470038160782FAA
:102EB0009B878A874F81588569858B850E9443143B
:102EC000000F111FF801E351FE4F80819181E82628
:102ED000F926F182E08286E0EEEFF1E0DE01119664
:102EE00001900D928A95E1F7F0900002E0900102C6
:102EF000109102020091030210920002109201024E
:102F000010920202109203028F2D8E2909F448C0FC
:102F10008091FC019091FD010E9461039C019091C0
:102F2000F801992309F435C123333105C8F19F3FD6
:102F300019F09F5F9093F801FF2059F00E949004D0
:102F40009FEF1F140CF491E0899F802D1124809332
:102F50000002EE2059F00E9490049FEF1E140CF422
:102F600091E0899F802D112480930102309100020D
:102F70003323B1F020910102222391F045EB340379
:102F8000C0011124992309F4D9C09093000265EB84
:102F9000260390011124332309F4D4C03093010295
:102FA000812F802B09F448C08091FA019091FB0198
:102FB0000E9461039C019091F701992309F4E4C0F8
:102FC00025363105C8F19F3F19F09F5F9093F701B7
:102FD000112359F00E946E049FEF11160CF491E03A
:102FE000899F802D112480930202002359F00E94B2
:102FF0006E049FEF10160CF491E0899F802D112430
:1030000080930302309102023323B1F02091030236
:10301000222391F045EB3403C0011124992309F4D4
:1030200095C09093020265EB26039001112433238F
:1030300009F490C030930302809100029091010244
:10304000892B90910202892B90910302892B11F018
:103050000E94CE0386E0FE013196AEEFB1E0019012
:103060000D928A95E1F70E94C2039091EB018917B6
:1030700009F4CBCE0E94C2038093EB010E94E609C3
:10308000C4CE80911F02843021F180E00E94E609C5
:1030900010920A020FB6F894A895C09260000FBE75
:1030A0009092600083B7817F846083BF83B7816023
:1030B00083BF7894889583B78E7F83BF0FB6F894CB
:1030C000A8958091600088618093600010926000F4
:1030D0000FBE80911E02882309F49BCE0E94FC0C37
:1030E000E1EEF1E0A2E5B1E0819191912D913D9168
:1030F00082239323892B91F521E0EB3EF207A1F780
:1031000088CE8394EE0CFF1CFFE08F12BDCE0F5FC4
:103110001F4F0530110509F0A0CE8FEF8C878D87EA
:103120001E860E9470038160782F988B8F874C8554
:103130005D856E8588890E944314CDCE81E08093A1
:10314000000225CF81E0809301022ACF81E08093A5
:10315000020269CF81E0809303026ECFA9BCB9BCA3
:1031600009B400FEFDCF8091D8008F7D8093D800F8
:103170008091E00082608093E0008091E00081FD1A
:10318000FCCF0E94270A45CE2D32314008F01DCFDA
:1031900053CF2D32314008F0CCCE02CF97FB072E13
:1031A00016F4009407D077FD09D00E94E81807FCB8
:1031B00005D03EF4909581959F4F08957095619547
:1031C0007F4F0895EE0FFF1F0590F491E02D0994B5
:1031D000AA1BBB1B51E107C0AA1FBB1FA617B7073D
:1031E00010F0A61BB70B881F991F5A95A9F7809559
:1031F0009095BC01CD010895F999FECF92BD81BD96
:10320000F89A992780B50895A8E1B0E042E050E02F
:103210000C943019262FF999FECF92BD81BDF89AF2
:10322000019700B4021639F01FBA20BD0FB6F8940A
:10323000FA9AF99A0FBE08950396272F0E940B1948
:103240000E940A19252F0E940B19242F0C940B1988
:103250000196272F0E940B190C940A19DC01CB014F
:10326000FC01F999FECF06C0F2BDE1BDF89A319696
:1032700000B40D9241505040B8F70895FB01DC01B5
:1032800004C08D910190801921F441505040C8F73D
:10329000881B990B0895F894FFCFB907B907C207A7
:1032A000C207C407C207C207C207B907B907C907DF
:1032B000C207C207C907160B3E0BD60C3E0BD60C35
:1032C000710B920BD60C8F0C9C0C8D108D10F11085
:1032D000F11024113E11C010C0104911BA11CA11C9
:0232E000CA1111
:1032E2005E038E096D09690965095D0301818283A7
:1032F200E200E900EA00B500B600B700CD008301A4
:10330200CC008A01920194012102230224022502A7
:10331200260227022A02B300B4006F007000F7F6FB
:10332200F5F4F134353666673031329192939594E3
:0C3332009697FF7FFF5FFF4FFD6F460C7A
:00000001FF
