:100000000C9421020C9468020C9468020C9468020F
:100010000C9468020C9468020C9468020C946802B8
:100020000C9468020C9468020C94471A0C94031AFE
:100030000C94441B0C9468020C9468020C946802A3
:100040000C9468020C9468020C9468020C94680288
:100050000C9468020C94201B0C9468020C946802A7
:100060000C9468020C9468020C9468020C94680268
:100070000C9468020C9468020C9468020C94680258
:100080000C9468020C9468020C9468020C94680248
:100090000C9468020C9468020C9468020C94680238
:1000A0000C9468020C9468020C94680229001E00EB
:1000B0001F0020002100220023002400250026002C
:1000C00027002D002E00310035002B0014001A00EF
:1000D0000800150017001C0018000C001200130087
:1000E0002F00300000002A00E00004001600070086
:1000F00009000A000B000D000E000F003300340051
:10010000000000002800E10000001D001B000600A8
:1001100019000500110010003600370038000000FB
:10012000E50065000000E300E200000000000000C0
:100130002C00000000000000E600E70000000000C6
:10014000000000047F3F1F643214643214783C1EA8
:100150001E140A0500010101010101010101020251
:100160000202020202020203030303030303030465
:100170000404040404040505050505060606060630
:10018000070707070708080808090909090A0A0AEA
:100190000B0B0B0C0C0C0D0D0D0E0E0E0F0F0F108C
:1001A0001011111112121313141415151616171716
:1001B000181819191A1A1B1B1C1D1D1E1E1F202082
:1001C000212222232424252626272829292A2B2CCC
:1001D0002D2D2E2F30313232333435363738393AEF
:1001E0003B3C3D3E3F404142434445464748494AE7
:1001F0004C4D4E4F50515354555658595A5B5D5EB5
:100200005F616264656668696B6C6D6F707273754F
:1002100077787A7B7D7E8082838587888A8C8E8FB3
:1002200091939596989A9C9EA0A2A3A5A7A9ABADE1
:10023000AFB1B3B5B7BABCBEC0C2C4C6C9CBCDCFCF
:10024000D1D4D6D8DBDDDFE2E4E7E9EBEEF0F3F57D
:10025000F8FAFDFFFFAA7F55402223252628292AE8
:100260002C2D2F3032333536383A3B3D3E40424319
:100270004547494A4C4E5051535557595A5C5E6058
:1002800062646668696B6D6F71737577797B7D7F6A
:1002900081838587898A8C8E90929496989A9C9E69
:1002A0009FA1A3A5A7A8AAACAEAFB1B3B4B6B8B985
:1002B000BBBCBEBFC1C2C3C5C6C7C9CACBCCCDCEED
:1002C000D0D1D2D2D3D4D5D6D7D7D8D9D9DADADBD0
:1002D000DBDBDCDCDCDCDCDDDDDDDDDCDCDCDCDC5C
:1002E000DBDBDBDADAD9D9D8D7D7D6D5D4D3D2D29B
:1002F000D1D0CECDCCCBCAC9C7C6C5C3C2C1BFBE83
:10030000BCBBB9B8B6B4B3B1AFAEACAAA8A7A5A3ED
:10031000A19F9E9C9A98969492908E8C8A898785AC
:1003200083817F7D7B79777573716F6D6B6968668B
:100330006462605E5C5A5957555351504E4C4A495D
:1003400047454342403E3D3B3A3836353332302F05
:100350002D2C2A29282625232205010980A1018583
:100360000319012AB700150126B700950175108100
:1003700000C0050C0901A101850419012AA002157C
:100380000126A002950175108100C005010906A192
:1003900001050719E029E715002501950875018178
:1003A000029501750881010507190029FF1500262E
:1003B000FF009506750881000508190129059505B6
:1003C00075019102950175039101C009023B00027C
:1003D0000100A0FA09040000010301010009211134
:1003E0000100012240000705810308000A090401F9
:1003F0000001030000000921110100012232000761
:1004000005820320000A1201000200000008907813
:100410000A000100010200011603590055004900BD
:100420004F00500036003000480048003500000002
:100430000C036B006F0072006F006E00000004037D
:10044000090411241FBECFEFDAE0DEBFCDBF04B632
:1004500003FE27C080915F0290916002A09161022B
:10046000B09162028730904BA740B04BD1F410920C
:100470005F0210926002109261021092620214BE3A
:1004800084B7877F84BF0FB6F894A89580916000E9
:10049000886180936000109260000FBEE0E0F8E396
:1004A000099511E0A0E0B1E0E4EFFDE302C00590A2
:1004B0000D92A039B107D9F722E0A0E9B1E001C05F
:1004C0001D92AF35B207E1F70E946B1B0C94D41E4E
:1004D0000C940000E8EDF0E080818E7F8083109224
:1004E000E2001092DA001092E100A0EEB0E08C91F0
:1004F00081608C9380818F77808319BCA7EDB0E0F9
:100500008C918E7F8C9380818F7E808310924102AC
:1005100008952091E4003091E50095E6A90120912D
:10052000EC00822F817020FF06C08091E80080FFE0
:1005300006C080E008952091E80022FD1AC0809155
:100540004E02882389F0853089F08091EB0085FD8B
:100550000FC02091E4003091E50042175307F9F2F3
:100560009150E1F684E0089582E0089583E00895D3
:1005700081E00895EF92FF920F931F93CF937C0138
:100580008B010E948902C82F811117C08091E80059
:1005900085FD0BC08091E8008E778093E8000E9473
:1005A0008902882399F3C82F08C0F70181917F0140
:1005B0008093F1000150110949F78C2FCF911F91C1
:1005C0000F91FF90EF9008958091500287FF13C024
:1005D0008091E80082FF06C08091E8008B778093CD
:1005E000E80004C080914E028111F2CF08958091FD
:1005F0004E028823D9F38091E80080FFF8CF8091E4
:10060000E8008E77ECCF982F9093E900242F762F77
:1006100050E0891731F07091EC002091ED0050917D
:10062000F00021FD07C09F5F973071F78093E900CC
:1006300081E008953091EB003E7F3093EB003091E4
:10064000ED003D7F3093ED003091EB003160309351
:10065000EB007093EC002093ED005093F00020919C
:10066000EE0027FDE0CF80E00895CF92DF92EF9279
:10067000FF920F931F93CF93DF93C8EDD0E0888153
:100680008F7E8883E7EDF0E080818160808384E065
:1006900082BF81E08093410288818E7F888302EE51
:1006A00010E0F80110821092DA0081EEC82ED12CF1
:1006B000F601108288818F7788838881806888839B
:1006C00088818F7D888319BC10924E0210924F0250
:1006D00010924D0210924C0290EEE92EF12CF7018F
:1006E00080818B7F808388818160888342E060E0A5
:1006F00080E00E940303F60180818E7F8083F801F1
:10070000808181608083808188608083F70180811F
:100710008E7F8083888180618883DF91CF911F9154
:100720000F91FF90EF90DF90CF900895FC018091A2
:1007300056029091570286179707A0F06115710530
:1007400029F49091E8009E779093E80090E061157D
:10075000710551F4911108C08091E80082FF34C006
:1007600080E00895BC01F2CF80914E028823C1F150
:100770008530C1F18091E80083FD30C08091E800B0
:1007800082FDEACF8091E80080FFE1CF8091F30005
:100790002091F200382F6115710519F028303105CC
:1007A00058F091E02830310509F090E02091E80000
:1007B0002E772093E800CBCF81918093F100615098
:1007C00071092F5F3F4FE7CF80914E02882341F0A0
:1007D000853041F08091E80083FFBECF81E008952D
:1007E00082E0089583E00895089508950895809122
:1007F000430208952FB7F8948091580290915902BE
:10080000A0915A02B0915B022FBF08959C01FC0198
:1008100032969FEF80E04191461751F09F3F19F4C7
:10082000411101C0982F8F5F8630A9F79F3F09F4CF
:100830000895290F311D97FD3A95F90162830895B6
:1008400020913B0230913C022817390771F09093B8
:100850003C0280933B02E0913902F0913A023097DA
:1008600021F00084F185E02D09940895209137024C
:10087000309138022817390771F09093380280932D
:100880003702E0913902F0913A02309721F0068068
:10089000F781E02D09940895E0913902F0913A0230
:1008A000309721F00190F081E02D099480E00895C7
:1008B000FA01811101C0FB01099480913202982F45
:1008C0009E7F29F4817082608093320208958A3479
:1008D000E8F381708864F8CFAF92BF92DF92EF9215
:1008E000FF920F931F93CF93DF93082F162FE901E9
:1008F000E42FF0E0EC5AFE4F611110C0E4915E2F3E
:100900004E2F4983E8835A83DF91CF911F910F9136
:10091000FF90EF90DF90BF90AF900895E62EF12CFE
:100920004491D42EE42FF0E026E0829FC0011124F0
:100930002FEF30E0B9010E94E51D802F90E0880F75
:10094000991F55E5569FD001579FB00D11248A1B62
:100950009B0B982F990F890F5901AE18BF08AE9EB7
:10096000D001AF9EB00DBE9EB00D11245B2F189F1D
:1009700080011124012F11275901A01AB10AAE9E3E
:100980008001AF9E100DBE9E100D11245901A81AB2
:10099000B108AE9CC001AF9C900DBE9C900D11247F
:1009A000892F9927281B390B2E9FC0012F9F900D4F
:1009B0003E9F900D1124E92F62307105A1F050F493
:1009C0006115710509F49DCF6130710581F0EB2F40
:1009D000512F97CF6430710569F080F06630710552
:1009E00009F48FCFF4CFE42F4B2F592F8ACFE42F68
:1009F000412F87CFEB2F542F492F83CF4B2F5D2DC6
:100A0000E12F7FCF80E00895F894E82FE295EF7012
:100A1000F0E031A1282F2F7081E090E001C0880F15
:100A20002A95EAF7982F9095932391A392A1892B69
:100A300082A3789408959091FB0192FF06C0282F1D
:100A400028712830F9F4877F846093FF06C0282F2F
:100A500028712831F1F4877E84612091FC0120FF08
:100A600006C0382F38713830D9F4877F816021FF74
:100A700006C0282F28712831D1F4877E816194FD2A
:100A8000877E0895282F24712430F9F68B7F8860A3
:100A9000DCCF282F2471243101F78B7E8861DDCFD4
:100AA000382F3171313019F78E7F8860E0CF282FD1
:100AB0002171213121F78E7E8861E1CFCF93DF93C1
:100AC000EC0182389105A9F1D8F58133910509F43B
:100AD00096C048F58932910509F48AC08A9709F4CD
:100AE00095C0C11522E5D20708F0B6C0C11531E5A1
:100AF000D30708F026C1C83ED10508F09CC0C03E0F
:100B0000D10560F5C83AD10508F087C0C53AD105CE
:100B100008F0EFC0C130D10509F12097F9F0C430D9
:100B2000D105E0F440C08533910509F45AC0C99756
:100B3000C1F68091FB01837089F0C0EED0E00EC059
:100B4000833E910599F170F4803E910501F1823E5A
:100B5000910539F68091FB0182FD21C0CE01DF9124
:100B6000CF910895863E910561F1873E910571F11F
:100B7000843E910509F0B5CF8091FC0181FFEECF55
:100B80008091FB01C7EED0E084FD0DC0E7CF8091DE
:100B9000FB0180FD07C19091FC0190FFDFCFC3EE08
:100BA000D0E084FFDBCFD0E0C0E0D8CF8091FB0164
:100BB00082FDFBC09091FC0190FDBFCF84FFCECFA2
:100BC000F2CF8091FB0183FDDDCFC8CF8091FB0187
:100BD00083FDEEC09091FC0191FFF0CFC4EED0E018
:100BE000BDCF8091FB0185FFB9CFC9E2D0E0B6CF80
:100BF0008091FB0185FFB2CFC5E3D0E0AFCF8091FC
:100C0000FB0186FFABCFCAE2D0E0A8CF8091FB0109
:100C100086FFA4CFC1E3D0E0A1CFCF3BD10518F62A
:100C2000C85AD0E0CC0FDD1FC25EDE4F0990D881DC
:100C3000C02DD46493CFC11540E5D40708F064C03B
:100C4000C11580E4D80708F05CC0CE019A958115E3
:100C50009F4108F483CFA7CFC11536E5D30718F518
:100C6000C11545E5D40708F084C0C11584E5D8074F
:100C700008F07AC09C2F969596959E012370332795
:100C8000C115D34508F462C0C1E0D0E002C0CC0F6A
:100C9000DD1F2A95E2F730E2939FC0011124C82B93
:100CA000D92BDA685BCFC1158AE5D80778F4C1156E
:100CB00099E5D90708F068C0C11528E5D20708F4FE
:100CC00072CFDC2FCC27C06FD06A48CFCE019056B0
:100CD0008115904208F067CF8D2F8F710E941B0500
:100CE00090E0982F882788279F719C012C2BE90181
:100CF00049C0C55AD0E0C55EDE4FC881D0E0D0649F
:100D00002DCFDF70D06A2ACFCE01E4E0969587958B
:100D1000EA95E1F783702C2F26952695237040E203
:100D2000249F90011124382B8C2F8370C1E0D0E0D8
:100D300002C0CC0FDD1F8A95E2F7C22BD32BDC68F3
:100D40000DCFDC2FCC27C16FD06A08CFC1E0D0E037
:100D500002C0CC0FDD1F2A95E2F720E2929FC0016E
:100D60001124C82BD92BEBCFDC2FCC27C46FD06A32
:100D7000F5CE8C2F0E941B05C82FD0E0DC2FCC278E
:100D8000CC27DF71D062EACE8C2F8F700E941B05BA
:100D900034E0D695C7953A95E1F7CF709C2FEC01DA
:100DA000D069DCCEC9E3D0E0D9CEC2EED0E0D6CE59
:100DB000C6EED0E0D3CE8091F50181111092F501FD
:100DC000089580959091F40198239093F4010895EB
:100DD0008091F4019091F301892B9091F201892B7C
:100DE000809392019091F501992391F0892B809342
:100DF000920120E084E991E0FC013191CF013111B1
:100E00002F5FF1E08A399F07B9F721110E94DB06B5
:100E1000E0913902F0913A02309731F00280F3818B
:100E2000E02D82E991E0099408958091F00190917C
:100E3000BF01981301C008958F5F8770FACFCF92DA
:100E4000DF92EF92FF920F931F93CF93DF93E09087
:100E5000FA012091F601E22AC7E0D0E0F12C082F38
:100E600010E02FE0929F000D111D11249BE4C92E6C
:100E7000DC2EC7010C2E02C0959587950A94E2F7E7
:100E800080FD0DC02197A0F7D12C8D2DDF91CF9142
:100E90001F910F91FF90EF90DF90CF900895CC9E1F
:100EA000F001CD9EF00D1124E00FF11FEE0FFF1F9A
:100EB000E455FF4F859194910E945E05019711F3CF
:100EC000E4CFCF93DF93EC010E941F07EC2FF0E0FB
:100ED0009FE0D99FE00DF11D11249BE4899FE00D57
:100EE000F11D1124EE0FFF1FE455FF4F85919491E2
:100EF000DF91CF910C945E052FE0929F800D11241D
:100F0000982F977086958695869523E0829FF001AD
:100F10001124E556FE4F50E040E080E0219130E0A2
:100F2000092E02C0369527950A94E2F721703327DF
:100F3000042E01C0220F0A94EAF7822B4F5F5F4F05
:100F40004330510559F708952FE0929F800D1124E9
:100F5000982F977041E001C0440F9A95EAF7869563
:100F60008695869593E0899FF0011124E556FE4F02
:100F700090E080E070E05191DF0111979B01082E15
:100F800002C0369527950A94E2F72170219525270E
:100F9000242325272C9301968330910561F708952A
:100FA000FC01808191810E946107292F2F70929509
:100FB0009F7092509E3078F4E92FF0E0EA52F14EA3
:100FC0000C942F1E803F19F020F4883E20F481E01D
:100FD0000895843FE1F380E00895883EC0F3813FA7
:100FE000D1F7F5CF822F869586958695089590E066
:100FF00080E00E94360490E080E00E94200410927D
:10100000F3011092F2010C94E8068093FA010C941B
:10101000F70721E030E001C0220F8A95EAF720951A
:101020008091FA0182230C9405089091F10180953A
:1010300089238093F101282F277091F4282F082EFF
:10104000000C330B9217130659F09091FC0192FD9E
:1010500007C08595859585950E9409081092F10134
:10106000089521E030E001C0220F8A95EAF78091CF
:10107000FA01822B0C9405088093F6010C94F70773
:10108000882321F00E94E1060C94E8060895882345
:1010900039F09091F401982B9093F4010C94E806A8
:1010A0000895882381F19CEF980F913A78F4E4E950
:1010B000F1E02AE931E09191891303C0DF01119732
:1010C0001C922E173F07B9F70C94E80690E2980F90
:1010D000983050F4877091E001C0990F8A95EAF733
:1010E000892F0E94E106F0CF9BE5980F933020F402
:1010F00090E080E00C943604885A873120F490E028
:1011000080E00C9420040895CF93C82F882309F41D
:101110004EC08CEF8C0F813AF8F4E4E9F1E08AE9F3
:1011200091E0DF012D91C21759F08A179B07D1F783
:101130006C2F82E991E00E940604CF910C94E8069E
:101140002191C21303C0DF0111971C928E179F07D4
:10115000B9F70E94E806ECCF80E28C0F883068F483
:10116000C77021E030E001C0220FCA95EAF78091F4
:10117000F401822B8093F401E0CFEBE5EC0FE33038
:1011800040F4F0E0E55EFE4F808190E0CF910C945A
:101190003604C85AC73158F4EC2FF0E0EE0FFF1FA9
:1011A000E25EFE4F80819181CF910C942004CF911B
:1011B00008950F931F93CF93DF93C62FD42F022F41
:1011C000FC0182818823A1F060935E020E94FA03F1
:1011D00090935D0280935C02C77081E001C0880F2C
:1011E000CA95EAF7DF91CF911F910F910C944708B0
:1011F00080915E02681343C020915C0230915D02D1
:101200004FB7F8948091580290915902A0915A02D8
:10121000B0915B024FBF821B930B883C910578F520
:1012200010E21D0F6D17B9F080E2860F883040F490
:10123000C77081E001C0880FCA95EAF70E94400894
:10124000183048F481E09D2F977001C0880F9A955F
:10125000EAF70E944708802F0E948408802F0E948E
:101260005108183098F4D77081E001C0880FDA95E2
:10127000EAF7DF91CF911F910F910C944008C7704E
:1012800081E001C0880FCA95EAF7F3CFDF91CF91D3
:101290001F910F91089580933E02709340026093D6
:1012A0003F0280914E02843001F582E08093E90094
:1012B0008FEF9091E800815095FD06C095ED9A95CD
:1012C000F1F700008111F5CF8091E80085FF0DC096
:1012D00050E040E063E070E08EE392E00E94BA02EA
:1012E0008091E8008E778093E8000895BC0184E047
:1012F0000C944B09BC0183E00C944B09CF93DF9312
:10130000EC0181E08093E9008FEF9091E80081503B
:1013100095FD06C095ED9A95F1F700008111F5CF86
:101320008091E80085FF14C050E040E068E070E084
:10133000CE010E94BA028091E8008E778093E80087
:1013400088E0FE01A4E4B2E001900D928A95E1F7F5
:10135000DF91CF9108958091320280FD12C01092EA
:101360002A021092290210922B0210922D02109242
:101370002C0210922E021092300210922F02109224
:101380003102239A35B1377F25B128604FB7F894E1
:1013900089E292E0FC015191CF0168E025B900009B
:1013A00000C057FF35B9550F000000C000C000C095
:1013B00035B900C06A9591F7F2E082339F0751F783
:1013C0004FBF8FE594E00197F1F700C0000008954A
:1013D000EF92FF920F931F93CF93DF938C01C9E29B
:1013E000D2E0F12CE12CF8019481609134028091DB
:1013F0003302E114F104F9F49923F9F09E014091CC
:1014000035020E946C04FFEFEF1AFF0A239683E077
:10141000E816F10441F70E94AB09F801848190E0DD
:101420000196817099278483DF91CF911F910F914D
:10143000FF90EF900895992309F39E0140E0E1CFDA
:101440008F929F92AF92BF92CF92DF92EF92FF92D4
:101450000F931F93CF93DF93EC014C81042F10E087
:101460009801D8010E943D1E9B01AC010E94531EB1
:101470004B015C01E0E2F0E0E01BF10BA5E5B0E020
:10148000AC019B010E94531E6B017C019F01DF0197
:101490000E94351E9B01AC010E945E1E9B01AC01A7
:1014A000280D391D4A1D5B1DC701B6010E940D1E86
:1014B000F22E822F90E039E23F15E0F143E0249FC5
:1014C0009001112435952795122F109599E2C92E78
:1014D00092E0D92E00E085E5E82EEF18802F869562
:1014E000C9F58E2D9601412F609134020E946C0443
:1014F0000F5F53E0C50ED11C033081F70E94AB098A
:101500009C8181E0992319F0903219F48FEF809338
:10151000190180911901890F8C83DF91CF911F915F
:101520000F91FF90EF90DF90CF90BF90AF909F9082
:101530008F90089525E530E0A901481B590BCA0199
:101540009A01220F331F280F391F37FFBBCF2F5FA0
:101550003F4FB8CF8F2DC6CF0F931F93CF93DF93FD
:1015600010922A021092290210922B0210922D0240
:1015700010922C0210922E021092300210922F0222
:1015800010923102C9E2D2E010E000E0809127021F
:10159000082E000C990B081719078CF1809118017F
:1015A000082E000C990B801791074CF19E01409179
:1015B000350260913402809133020E946C040F5F07
:1015C0001F4F23960330110509F70E94AB09809144
:1015D000170190912702980F9093270220911801EC
:1015E000280F20931801121614F492301CF08195E4
:1015F00080931701DF91CF911F910F910895198268
:1016000018821A82DCCFBF92CF92DF92EF92FF92C4
:101610000F931F93CF93DF93FC018281DD24DA9433
:1016200080FD02C0DD24D39409E212E0D0E0C0E0E6
:1016300023E0B22EF80111821082128294E0E92E8A
:10164000F12CC12C809126028C0D84300CF43DC00D
:101650006B2D0E94D71D892F082E000C990B8C171B
:101660009D0791F4809135028E9DA0018F9D500DB4
:1016700011245595479555954795980160913402E9
:10168000809133020E946C04CD0CF1E0EF1AF10856
:10169000C9F621960D5F1F4FC330D10559F60E9440
:1016A000AB098091260291E0D91215C0811111C0B9
:1016B00082E080932602DF91CF911F910F91FF90DE
:1016C000EF90DF90CF90BF90089587FFC5CF8D5FDB
:1016D000C3CF8150EECF90E00196BE010E94F91D6C
:1016E000E8CFEF92FF921F93CF93DF93EC0189E253
:1016F000E82E82E0F82E10E08C81970140913502AF
:1017000060913402810F0E946C041B5A83E0E80E42
:10171000F11C1F3F89F70E94AB099A818C8190FFD1
:1017200008C08F5F8C83DF91CF911F91FF90EF9066
:1017300008958150F7CF9091320290FF14C08093AA
:101740002A026093290240932B0280932D0260931A
:101750002C0240932E028093300260932F0240931C
:1017600031020C94AB0908950F931F93CF93DF932D
:1017700000D00F92CDB7DEB78C0180912802811185
:101780000AC09E012F5F3F4F4FEF6FEF0E946C0426
:101790008A8180932802F8016481613069F0809128
:1017A000280240E0662361F040E0623011F440918D
:1017B000280280E060E004C06091280240E080E000
:1017C0000E949B0BF801848190E0019663E070E039
:1017D0000E94F91D84830F900F900F90DF91CF919D
:1017E0001F910F910895CF93DF9300D00F92CDB743
:1017F000DEB79091320290FF0AC09E012F5F3F4FEB
:101800000E946C044B8169818A810E949B0B0F901E
:101810000F900F90DF91CF910895CF93DF93EC015C
:10182000E2E3F2E0438162818C810E94F30B8C81C0
:101830008F5F8C83DF91CF910895CF93DF93EC017D
:10184000EC81F0E0E75AFD4F4491E2E3F2E062817F
:1018500081810E94F30B8C818F5F8C83DF91CF910C
:101860000895CF92DF92EF92FF926B017C010E946C
:101870005D04B701A60188E090E0FF90EF90DF9053
:10188000CF900C94981E5F926F927F928F929F924E
:10189000AF92BF92CF92DF92EF92FF920F931F937E
:1018A000CF93DF9300D00F92CDB7DEB7182F762EEF
:1018B000042F622E9091320290FF29C0E92FE69505
:1018C000AE2FB0E0A659BE4F8C91809324029E7F2C
:1018D000923081F59E012F5F3F4F812F0E946C0453
:1018E0004B8169818A810E949B0B10933302709215
:1018F000340200933502662051F0609132027091FB
:10190000330280913402909135020E94310C0F9085
:101910000F900F90DF91CF911F910F91FF90EF905B
:10192000DF90CF90BF90AF909F908F907F906F90FF
:101930005F900895823019F400913502D6CF863039
:1019400019F410913302D1CF8930D9F3893169F676
:10195000E9518E2F8170582EE695F0E0EC5AFD4F3C
:10196000A590B490BB2489E2E82E82E0F82ED12C19
:10197000C12C93E0892E912CC601B4010E94E51D73
:10198000812F511013C0860F9701402F672D0E94A1
:101990006C04CA0CDB1C83E0E80EF11C82E3E81641
:1019A00082E0F80649F70E94AB099FCF861BECCF77
:1019B000E2E3F2E0438121E1421B08F440E021E050
:1019C000628181810C94430CE2E3F2E0438121E1E6
:1019D000420F08F44FEF21E0628181810C94430CA7
:1019E000E2E3F2E0628121E1621B08F460E021E0C1
:1019F000438181810C94430CE2E3F2E0628121E1B6
:101A0000620F08F46FEF21E0438181810C94430C55
:101A1000E2E3F2E0818121E04381628181510C9413
:101A2000430CE2E3F2E0818121E0438162818F5E39
:101A30000C94430C80913602882319F081508093D6
:101A4000360260913202709133028091340290919B
:101A500035020C94310C80913602833018F48F5F7C
:101A60008093360260913202709133028091340289
:101A7000909135020C94310C9091320290FF3DC050
:101A80009170811129C0926090933202662351F0C7
:101A9000609132027091330280913402909135024C
:101AA0000E94310C60913202669570E04BE050E08C
:101AB0008CE091E00E94BA1E892BA9F010922502B9
:101AC00081E08093210220E0409135026091340250
:101AD000809133020C94430C853210F09864D4CF7B
:101AE000880F982BD1CF81E0809325020E94FA03C2
:101AF00090931F0280931E02E3CF089580913202DB
:101B00008695815009F484E261E00C943C0D80914B
:101B1000320286958F5F853208F081E061E00C9497
:101B20003C0D9091320290FF07C09695981720F0D7
:101B3000961710F40C94870D61E00C943C0DE2E3D1
:101B4000F2E083E0808311828FEF828383831482AB
:101B500060817181828193810C94310C1092F40127
:101B6000E4E9F1E086E0DF011D928A95E9F70C9443
:101B7000F7071F93CF93DF93CDB7DEB7AA970FB6C2
:101B8000F894DEBF0FBECDBF80E592E02091F1005A
:101B9000FC012193CF01F2E088359F07B9F78091CE
:101BA0005102833009F470C0B8F4813009F447C0A1
:101BB000823009F4B1C08091E80083FF7EC2809139
:101BC0005002909151029A3008F077C2E92FF0E06C
:101BD000EC51F14E0C942F1E8A3009F48CC08B30DE
:101BE00009F46FC0893039F780915002813219F7BA
:101BF00080915402909155020297E8F68091E80096
:101C0000877F8093E8008091E80082FF38C0909140
:101C1000F3008091F200029731F48091F10081305D
:101C200011F0863021F48091F1008093430280917D
:101C3000E8008B778093E8000E94E402BCCF80919B
:101C40005002813A09F0B7CF8091E800877F8093F6
:101C5000E8008091540290915502892B61F468E06C
:101C600084E492E070E00E9496038091E8008B7714
:101C70008093E800A0CF60E090E080E0F3CF809117
:101C80004E028111C0CF97CF80915002813A09F066
:101C900092CF8091540290915502892B09F08BCFFD
:101CA0008091E800877F8093E8008091E80080FFC2
:101CB000FCCF80911A018093F1008091E8008E772B
:101CC000B9CF80915002813209F075CF80915402D2
:101CD00090915502892B09F06ECF8091E800877FA3
:101CE0008093E8000E94E4028091520280931A01DE
:101CF0000E94AE0D60CF80915002813209F05BCF1F
:101D00008091E800877F8093E8000E94E402809140
:101D10005302809342024FCF80915002813A09F0E2
:101D20004ACF8091E800877F8093E8008091E800A7
:101D300080FFFCCF80914202BECF803899F082387C
:101D400009F0BBC1809154028F70873008F0B5C193
:101D50008093E9008091EB0085FB882780F9109241
:101D6000E90006C080914C0290914D029111826071
:101D70009091E800977F9093E8008093F100109293
:101D8000F1008091E8008E7794C1882309F482C124
:101D9000823009F092C180915202811185C18091F7
:101DA00054028F702FEF280F263008F086C18093E1
:101DB000E9002091EB0020FF77C1933031F480914E
:101DC000EB0080628093EB006FC19091EB0090611B
:101DD0009093EB0021E030E001C0220F8A95EAF7F2
:101DE0002093EA001092EA008091EB008860EACF2D
:101DF000811163C1109152021F778091E3008078B6
:101E0000812B8093E3008091E800877F8093E80036
:101E10000E94E4028091E80080FFFCCF8091E30003
:101E200080688093E30082E0111183E080934E028A
:101E300044C18058823008F040C180915202909194
:101E400053028C3D23E09207A1F583E08A838AE266
:101E500089834FB7F894DE01139620E03EE051E20B
:101E6000E32FF0E050935700E49120FF03C0E29588
:101E7000EF703F5FEF708E2F90E0EA30C0F0C796B2
:101E80008D939D932F5F243159F74FBF8091E800C8
:101E9000877F8093E8006AE270E0CE0101960E949D
:101EA00096038091E8008B778093E80006C1C09686
:101EB000E7CF4091540250915502292F3327233008
:101EC000310509F444C078F52130310509F46FC0BB
:101ED0008BE390E0EBECF3E02230310509F0EDC04C
:101EE0002091E800277F2093E8002091560230914E
:101EF00057028217930708F49C0140E02115310531
:101F000009F064C0411162C08091E80082FDC9CF30
:101F100080914E02882329F2853019F28091E800E1
:101F200083FFF2CFBECF21323105A9F12232310534
:101F300009F0C3C04115510509F443C041305105B2
:101F400009F0BBC082E390E0E9E5F3E0C9CF99274F
:101F500081309105C1F0009759F0029709F0ADC0AA
:101F6000E8E1F4E0E4918E2F90E0E8E1F4E007C0CE
:101F7000EEE3F4E0E4918E2F90E0EEE3F4E00097DE
:101F800009F49BC0ADCFE0E3F4E0E4918E2F90E044
:101F9000E0E3F4E0F4CF4115510571F04130510513
:101FA00009F08BC089E090E0E6EFF3E099CF82E1A1
:101FB00090E0E6E0F4E094CF89E090E0EDEDF3E02E
:101FC0008FCF80E490E0EBE8F3E08ACF80914E027F
:101FD000882309F466CF853009F463CF8091E80047
:101FE00083FD5FCF8091E80082FD8ECF8091E80075
:101FF00080FF84CF9091F3008091F200211531058C
:1020000019F08830910550F041E0089709F040E060
:102010008091E8008E778093E80070CF44914093E0
:10202000F1003196215031090196E8CF803809F04E
:1020300044C08091E800877F8093E80080914F0240
:102040008093F1009ECE811138C01091520212305F
:10205000A0F58091E800877F8093E80010934F02FD
:102060000E94E402112311F084E005C08091E30096
:1020700087FDFACF81E080934E0242E061EC81E07F
:102080000E94030342E261EC82E00E94030380911C
:102090004E0213C080915202813079F481E0933076
:1020A00009F080E080934D021092E9008091E800F1
:1020B000877F8093E8000E94E4028091E80083FF1C
:1020C0000AC08091E800877F8093E8008091EB0050
:1020D00080628093EB00AA960FB6F894DEBF0FBE25
:1020E000CDBFDF91CF911F910895CF9384E090E011
:1020F0000E94721EC82F82E290E00E94721E982FEA
:102100008C2FCF9108954F925F926F927F928F9212
:102110009F92AF92BF92CF92DF92EF92FF920F9376
:102120001F93CF93DF93CDB7DEB72A970FB6F894FE
:10213000DEBF0FBECDBF8E010F5F1F4F8AE0F801DB
:1021400011928A95E9F79CE4E92E91E0F92E680155
:1021500021E5422E21E0522E66246394712C40E644
:10216000842E41E0942EF70181917F018F3F09F485
:1021700045C0F894E82FE295EF70F0E021A18F7050
:10218000A30102C0440F551F8A95E2F7CA01922F9E
:10219000982B91A392A18095892382A3789400C063
:1021A000E1E5F1E021E030E0B12CA12C41914F3F7D
:1021B00009F489C0A42FA295AF70B0E090968C91DD
:1021C00090E04F7002C0959587954A95E2F780FDA3
:1021D0007AC0C901A82AB92A220F331F8E169F067A
:1021E00029F7F701319780818F3F11F00E94040594
:1021F00050EA5A95F1F7F601B182A082F2E0CF0ED3
:10220000D11C4E145F0409F0AECF4AE050E0B80193
:102210008DEF91E00E94C71EFF24F394009709F40C
:10222000F12C892B09F452C08AE0F801ADEFB1E03E
:1022300001900D928A95E1F781E08093F9010E9467
:10224000FA039093F8018093F7012091F701309100
:10225000F8014FB7F8948091580290915902A091DB
:102260005A02B0915B024FBF821B930B059790F10E
:102270008091FD019091FE019093090280930802E4
:102280008091FF019091000290930B0280930A02CB
:10229000809101029091020290930D0280930C02B2
:1022A000809103029091040290930F0280930E029A
:1022B0008091050290910602909311028093100282
:1022C0001092F90107C090E080E084CF8091F9017D
:1022D0008111BBCF8F2D2A960FB6F894DEBF0FBEAB
:1022E000CDBFDF91CF911F910F91FF90EF90DF90C5
:1022F000CF90BF90AF909F908F907F906F905F90A6
:102300004F90089569EE7EEF90E080E00E94A41E59
:1023100060E082E090E00E94861E60E083E090E052
:102320000E94861E1092F60160E084E090E00E9418
:10233000861E60E082E290E00E94861E60E085E0FA
:1023400090E00E94861E60E086E090E00E94861E7B
:102350006FEF87E090E00E94861E40E050E0BA01F7
:1023600088E090E00E94981E60E08DE090E00E947E
:10237000861E40E050E0BA0188E190E00E94981E7D
:1023800060E087E190E00E94861E40E050E0BA01E4
:102390008CE190E00E94981E70E060E080E290E0A6
:1023A0000E94A41E40E050E0BA0188E190E00E9443
:1023B000981E40E050E0BA018FE090E00E94981E25
:1023C00040E050E0BA0183E190E00C94981ECF9376
:1023D000C091FC01C2FB992790F9981799F080FBF6
:1023E000C2F9C093FC016091FB0184E090E00E947F
:1023F000861E6C2F82E290E00E94861E82E0CF91C2
:102400000C941508CF9108958F929F92AF92BF922E
:10241000CF92DF92EF92FF920F931F93CF93DF93B0
:1024200000D000D00F92CDB7DEB77C01FC018381D4
:102430009481892B39F01081D180812F8D218F3F9C
:1024400009F07CC40F900F900F900F900F90DF91C8
:10245000CF911F910F91FF90EF90DF90CF90BF90A1
:10246000AF909F908F9008950E941F07082F682FAC
:1024700089819A810E94A407E12FF0E02FE0D29E8B
:10248000E00DF11D11243BE4039FE00DF11D11242B
:10249000EE0FFF1FE455FF4F05911491043F8CE5AB
:1024A000180709F496C0B0F5093DECE51E0709F4DC
:1024B0008CC00A3DFCE51F0709F497C0083D2CE5D8
:1024C0001207B1F526E241EE61EEC7010E94D9087C
:1024D0008091F101877009F4B5CFF70182818823DB
:1024E00009F4B0CF8091FC0182FDACCF82E00F9067
:1024F0000F900F900F900F90DF91CF911F910F9140
:10250000FF90EF90DF90CF90BF90AF909F908F9013
:102510000C941508063F3CE5130709F462C008F463
:102520005CC027E245EE66EE073F9CE5190769F2BD
:10253000F7018281882309F412C410925E020430EC
:10254000FDE51F0708F054C00B3F2CE5120730F4DF
:10255000C80182509C45449708F04FC00E947510F6
:102560009093FC018093FB0100318CE5180709F47E
:1025700017C108F093C00830ECE51E0709F4FEC04F
:1025800008F065C004302CE5120709F4E9C008F032
:102590004BC002308CE5180709F4DCC08091FB01C8
:1025A000826003301C4509F4D8C06091FB01109192
:1025B000FC0184E090E00E94861E612F82E290E0A0
:1025C0000E94861E0E94AE0D83CF27E245EE65EE87
:1025D0007CCF26E241EE60EE78CF27E245EE64EE56
:1025E00074CF26E241EE62EE70CF28E241E0EFCFF9
:1025F00002363DE5130709F4B1CF8091F4010631AD
:10260000ECE51E0709F0C2C38A7A91E009F490E074
:1026100090939A0169E2811165E382E991E00E9459
:1026200006040E94E80654CF8091FB0180610630C9
:10263000ECE51E0709F491C08091FB01886007302A
:102640001C4508F48AC08091FB01806286C080919D
:10265000FB018D7F0C302CE5120709F47EC058F485
:102660000A308CE5180709F493C008F48BC08091F8
:10267000FB018E7F72C08091FB01877F0E30ECE5FD
:102680001E0709F46AC08091FB018B7F0F301C4547
:1026900008F463C08091FB018F7E5FC00D3F2CE585
:1026A000120709F479C068F504318CE5180709F4BC
:1026B0008BC080F40231ECE51E0709F475C08091EF
:1026C000FB018F7B03311C4508F447C08091FB015F
:1026D000837F43C00B3F2CE5120709F445C008F087
:1026E00049C005311C4509F060CF8091FB0182FB98
:1026F000992790F921E0922790FB82F990FB83F9CA
:102700002CC001309DE5190709F454C088F480916C
:10271000FC0183600F3FFCE51F0749F18091FC013C
:102720008D7F01151D4518F18091FC018C7F1FC024
:1027300003303DE5130709F456C008F44EC00236D5
:102740001D4509F032CF9091FB01892F8F7E94FFB8
:10275000806103C08091FB0181608093FB0125CFE4
:102760008091FB018460F9CF8091FC0181608093AE
:10277000FC011BCF8091FC018260F9CF8091FB01AD
:102780008064EBCF0E94AE0D8091FB018068E5CFA5
:102790008091FB018C60E1CF8091FC018E7FE7CFBF
:1027A0008091FB018F7DD9CF0E94AE0D8091FB01FE
:1027B0008F77D3CF8091FC01982F909591708E7F69
:1027C000892B90FB81F9D3CF0E94AE0D9091FB0134
:1027D000892F97FB87F98058C0CF61E08EE090E0A9
:1027E0000E94861EE2CE60E0F9CF85E3C1C28091EF
:1027F000320280FF1BC08E7F8093320260913202D2
:102800007091330280913402909135020E94310C14
:1028100010922502FFEF20E732E0F15020403040D7
:10282000E1F700C000000E94AB0952CE81608093A6
:10283000320261E086950E943C0D4ACE4EE75DE093
:1028400067E87DE00E94580443CE47E85DE06EE70C
:102850007DE0F8CF41E15DE068E07DE0F3CF40EF5F
:102860005CE06CEF7CE0EECF48ED5CE064EE7CE099
:10287000E9CF44EE5CE068ED7CE0E4CF4BE25DE064
:102880006AE17DE0DFCF61E081E0D5CF65E082E005
:102890000E94910D1DCE68E086E0FACF64E18FE0E2
:1028A000F7CF67E185E1F4CF62E289E1F1CF61E042
:1028B00083E2C1CF0C352DE5120709F442C00D3576
:1028C0001D4509F08EC28091FC0182FB882780F9AA
:1028D00091E089270E94E71184C20E94AE0D8FEF1C
:1028E00094E3ECE081509040E040E1F700C000004C
:1028F00081E08093E00080E28093D8001092C900CC
:102900008FE19EE40197F1F700C0000087E090EBB3
:10291000DC0180935F0290936002A0936102B09308
:10292000620288E19CE00FB6F894A895809360005D
:102930000FBE90936000FFCF0E948211C9CD81E04D
:10294000C9CF80E0C7CF812F902F0E947C07D82E5F
:1029500059C2212F2F70C22E107F19F0C29420EF80
:10296000C222DD20B9F0CC2069F080E2800F8830EF
:1029700010F0811009C08091F401C82AC092F401BE
:102980000E94E806802F4BC08091F301C82AC092B4
:10299000F301F6CF802F0E945108CC2009F441C0EA
:1029A000005E083010F0811004C08C2D0E94E106FA
:1029B00006C0C0948091F301C822C092F3010E9426
:1029C000E8062FC0312F3F70C32E107F103219F050
:1029D000C29490EFC922882089F081E0881609F41A
:1029E00088C0DD2009F492C0BB2009F488C0F7013B
:1029F000858180FFC7CF8F70858381C02091FC01C6
:102A000022FF54C0DD2009F44AC0CC2039F0809167
:102A1000F401C82AC092F4010E94E80680E00E94F6
:102A20008408E92DE850FF0B349710F40E944C0401
:102A3000AA20A9F08091F10180FD11C0F701128256
:102A40008595859585950E943108C7010E940412DD
:102A50008091F1018595859585950E94090885E00D
:102A6000F701DE01119601900D928A95E1F78981B7
:102A70009A810E947C079A81E981F0E02FE0929F81
:102A8000E00DF11D11243BE4839FE00DF11D1124A5
:102A9000EE0FFF1FE455FF4F85919491D3CC80E05A
:102AA0000E945108CC2009F4BCCF7FCFDD20A1F0DB
:102AB0009091F5018C2D892BB11003C00E9447081D
:102AC000B0CFE1E0BE12FACF22FDABCF981709F4E8
:102AD000A8CF8093F501A5CFB11006C00E94DB06F8
:102AE0008C2D0E9440089DCFF1E0BF1609F499CFCC
:102AF000F5CFDD2031F025E02B1508F492CF8C2D99
:102B0000DDCF34E03B1508F48CCFEACFBB2041F396
:102B1000F9E38F120CC12FEF37EE83E021503040E4
:102B20008040E1F700C0000002C1812F86958695A4
:102B3000837061F0813009F074CFC8019370D110B7
:102B400002C090E080E00E9420046BCFC801937027
:102B5000D11002C090E080E00E94360462CF812F45
:102B6000837089F5D1105DCF402F4295469547700F
:102B7000440F440F802F8F70042E01C0880F0A94D9
:102B8000EAF7202F207104FF07C02FE030E001C0DA
:102B9000220F4A95EAF72095169516951370123074
:102BA00069F050F43091F601113029F0822B832323
:102BB0000E943C0836CF832B822BFACF282B8091A2
:102BC000F6018227F5CF8695DD2011F0812F8170E7
:102BD000882309F426CF402F429546954770440F2D
:102BE000440F802F8F70042E01C0880F0A94EAF7DB
:102BF000202F207104FF07C02FE030E001C0220F1A
:102C00004A95EAF72095169516951370123069F0DB
:102C100050F43091FA01113029F0822B83230E9465
:102C20000508FFCE832B822BFACF282B8091FA0147
:102C30008227F5CF1F70DD2029F0812F0E943108F7
:102C4000802F3CCF802F0E944008812F0E940908CE
:102C5000E8CE802F92EF8916A9F1981570F0E0EF79
:102C60008E16D1F0F1EF8F1691F0DD2009F45AC0E5
:102C7000B11088CE812F8F7129C023EF821649F1C0
:102C800034EF8312F2CF8091FC0182FF2DC0812F9F
:102C90008F71DD20D9F21AC0DD2079F084E08B1528
:102CA00008F4BFCE1F7181E090E001C0880F1A9533
:102CB000EAF79091FA018927B2CF95E09B1508F4C5
:102CC000B0CEF0CF812F8F71D110C0CF0E943108CC
:102CD000A8CE80E0DD2009F4A2CF1F7181E001C001
:102CE000880F1A95EAF79BCFDD2089F01F71812F9D
:102CF0000E9431088091FC0182FD07C0E8E01E9F20
:102D0000C001112483608093F101812FDFCF81E026
:102D10000E941508F1E0FB1508F083CE82E00E94C6
:102D200015087FCEBB2039F0893309F4F4CE802F0B
:102D30000E94510876CE812F8F7188CF85E0DE0109
:102D4000119601900D928A95E1F7F7012281898110
:102D50009A81211189CB0E947C07082F8DCB0631E7
:102D60001C4509F03EC080919A0181113ECD89E257
:102D7000E4E9F1E02AE931E09191891303C0DF0130
:102D800011971C922E173F07B9F74BCC82720D3C5E
:102D90002CE5120709F472CD08F0AEC0073C9CE5A3
:102DA000190709F457CD08F083C0043CFCE51F0760
:102DB00009F444CD08F06DC0033C3CE5130709F469
:102DC00016CD0B358DE5180709F4B9CD08F072CD95
:102DD0000115ECE51E0709F480CD0F3D1C4509F4F3
:102DE000ABCDF701828110810181882309F4ABCD3D
:102DF000812F902F0E941F07D82E682F812F902F90
:102E00000E94A407E12FF0E02FE0029FE00DF11DEA
:102E100011243BE4D39EE00DF11D1124EE0FFF1FA2
:102E2000E455FF4F859194910E945E058C01882E98
:102E3000F701D280B580B2945FE0B5228091F101B4
:102E40008770C1F0AD2CDD20B1F0812F807F803400
:102E500021F080E2800F883068F08091FC0182FDD3
:102E600009C082E00E9415088091F1018770AA24B0
:102E7000A3948111A12C912E92943FE09322FBE028
:102E8000F91508F4CECDE92DF0E0E251F14E0C94A5
:102E90002F1E053C9CE5190709F4D7CC48E05DE0FE
:102EA00061E17DE0063CECE51E0709F4CBCC89CF5F
:102EB0000A3CFCE51F0709F4D7CC78F4083C3CE554
:102EC000130709F4CCCC4CEF5CE060EF7CE0093CEC
:102ED0009CE5190709F4B6CC74CF0B3CECE51E0752
:102EE00009F4C7CC4AE15DE06BE27DE00C3CFCE517
:102EF0001F0709F4A7CC65CF023D2CE5120709F4A2
:102F0000CDCCA0F40F3C8CE5180709F4BFCC08F435
:102F1000BACC003DECE51E0709F4BDCC6EE089E0BB
:102F2000013DFCE51F0709F4B3CC4BCF053D2CE573
:102F3000120709F4B9CC68F4033D8CE5180709F4CD
:102F4000B0CC61E088E1043D9CE5190709F473CC3D
:102F500038CF063DECE51E0709F4A9CC0E35FDE59A
:102F60001F0709F4B5CA2DCF1F93CF93DF9380912C
:102F7000BE01807FA9F48091BB01882389F08091F4
:102F8000F001D091BF016091B9017091BA01A09197
:102F9000BC01B091BD01C62FC72316E0D81304C0F1
:102FA000DF91CF911F91089590E0109711F0CF3FDE
:102FB00019F401968770F2CF189F9001199F300D78
:102FC0001124F901E054FE4F41814713F2CF4081B3
:102FD0004613EFCF42814111ECCF438154814A1B0C
:102FE0005B0B483C510528F78091BE018F708061D2
:102FF0008093BE01F901EB53FE4F80818F70806199
:10300000808389EB91E00E940412DF91CF911F91A0
:103010000C941507AF92BF92CF92DF92EF92FF927E
:103020000F931F93CF93DF93CDB7DEB761970FB6A2
:10303000F894DEBF0FBECDBF8C0185E0F801DE0144
:103040001D9601900D928A95E1F7F801E28089EBD7
:10305000A82E81E0B82E6091BC017091BD01611570
:10306000710509F422C19091B9014091BA01892FEB
:1030700084238F3F09F419C120813181C380D4801A
:10308000F090BB01F601E61BF70BFF2009F4F4C03A
:103090008091BE01582F507FE83CF10508F0B7C081
:1030A000511177C0FE2C431321C092131FC0E110B1
:1030B0001DC08F7080618093BE01C5010E94041203
:1030C0008091BE01F80185838F2D61960FB6F8942B
:1030D000DEBF0FBECDBFDF91CF911F910F91FF904B
:1030E000EF90DF90CF90BF90AF900895CD2829F05A
:1030F000822F83238F3F09F0F3C080E0F82FF17017
:10310000DF2E80FF3CC08091F0014091BF0156E06E
:10311000841315C02D873E878D859E850E9461078B
:10312000292F22952F702230F0F0243018F59F704F
:10313000F1F0F8019581907FD1F4D12C1EC090E080
:10314000589FF001599FF00D1124E054FE4F61810A
:10315000361306C06081261303C06281E6120FC0D9
:1031600001968770D5CF9F7011F0882331F3805E70
:10317000883018F3C8010E940412FD2CA5CFEE2060
:1031800009F4A2CF8091BE0181608093BE01F12C31
:103190009BCF431312C0921310C0E1100EC0F80170
:1031A0008583C8010E94041286E0F801A9EBB1E012
:1031B00001900D928A95E1F787CFC8010E94D00750
:1031C000882309F1EE20F9F08091BE01803270F081
:1031D0002091B9013091BA0138872F831986DB8697
:1031E000CA868C87CE0107960E94041286E0F801F9
:1031F000A9EBB1E001900D928A95E1F70E94B41716
:10320000FF24F39461CFC8010E940412F9CF511139
:103210000AC089EB91E00E94041286E0F501119248
:103220008A95E9F7B4CF43130FC092130DC0E11094
:103230000BC0F8018583C8010E94041286E0F501E5
:1032400011928A95E9F740CFC8010E94D0078823E0
:10325000D1F2EE20C1F28091BE01803238F220918D
:10326000B9013091BA013A8329831B82DD82CC8275
:103270008E83CE010196B8CFE83CF105F8F6FE2C1E
:10328000EE2009F2431303C0921709F48DCFC80151
:103290000E94D0078111AACF8091BE0181608093E6
:1032A000BE01C8010E9404120FCFEE2009F4ABCF7B
:1032B000C8010E94D007F82E882309F4A4CF86E025
:1032C000F801A9EBB1E001900D928A95E1F78091A8
:1032D000B9019091BA010E9461070E94B417F4CE1F
:1032E00081E08E250BCF1F93CF93DF93CDB7DEB751
:1032F00067970FB6F894DEBF0FBECDBF4B8B5C8BCC
:103300006D8B7E8B8F8B61111092F3011A8A198A53
:1033100085E0FE017396DE011D9601900D928A955F
:10332000E1F786E0FE013D96DE01179601900D92D1
:103330008A95E1F7CE0107960E940A18882389F042
:1033400016E08091F0019091BF01891349C0679602
:103350000FB6F894DEBF0FBECDBFDF91CF911F91A6
:10336000089586E0FE013796DE01119601900D92D8
:103370008A95E1F78A859B85892B11F38F81988542
:1033800089238F3FE9F22091BF0130E0C901019606
:10339000877099274091F0014817190671F40E942F
:1033A000AE0D1092BF011092F00186E0E9EBF1E062
:1033B000DF011D928A95E9F7C3CF96E0929FD00175
:1033C000939FB00D1124A054BE4FFE013196019081
:1033D0000D929A95E1F78093BF010E941507B0CF37
:1033E000819FC001112480549E4F0E940A18882397
:1033F00009F4ADCF8091F00190E001968770992794
:103400008093F0019ECF1F920F920FB60F9211245E
:103410002F933F934F935F936F937F938F939F93DC
:10342000AF93BF93CF93DF93EF93FF93D091E900D6
:10343000DF708091EC00C82FC17080FDC0E8109251
:10344000E9008091F000877F8093F00078940E94DB
:10345000B90D1092E9008091F00088608093F0002F
:10346000CD2BCF70C093E900FF91EF91DF91CF9109
:10347000BF91AF919F918F917F916F915F914F918C
:103480003F912F910F900FBE0F901F9018951F9294
:103490000F920FB60F9211242F933F934F935F9388
:1034A0006F937F938F939F93AF93BF93EF93FF930C
:1034B0008091E10082FF09C08091E20082FF05C097
:1034C0008091E1008B7F8093E1008091DA0080FFA2
:1034D00024C08091D80080FF20C08091DA008E7FC8
:1034E0008093DA008091D90080FF9DC080E189BD82
:1034F00082E189BD09B400FEFDCF81E080934E02D8
:1035000080914102811109C00E946A020E94350324
:103510008091E20084608093E2008091E10080FF6E
:1035200017C08091E20080FF13C08091E2008E7F7F
:103530008093E2008091E20080618093E2008091BC
:10354000D80080628093D80019BC85E080934E0239
:103550008091E10084FF2BC08091E20084FF27C0AE
:1035600080E189BD82E189BD89B5982F917080FF86
:10357000FBCF8091D8008F7D8093D8008091E100AF
:103580008F7E8093E1008091E2008F7E8093E20045
:103590008091E20081608093E20080914F02882355
:1035A00009F447C084E080934E0280914E028091DE
:1035B000E10083FF27C08091E20083FF23C0809158
:1035C000E100877F8093E10082E080934E021092B9
:1035D0004F028091E1008E7F8093E1008091E200B4
:1035E0008E7F8093E2008091E20080618093E20010
:1035F00042E060E080E00E9403038091F000886078
:103600008093F000FF91EF91BF91AF919F918F91C7
:103610007F916F915F914F913F912F910F900FBECE
:103620000F901F90189519BC10924E0210924102F3
:1036300074CF8091E30087FD93E090934E02B5CF65
:1036400078941F921FB61F9211248F939F93AF936C
:10365000BF938091580290915902A0915A02B09163
:103660005B020196A11DB11D8093580290935902EF
:10367000A0935A02B0935B02BF91AF919F918F913B
:103680001F901FBE1F9018951F921FB61F921124E6
:103690008F939F93AF93BF9380913D02811113C08D
:1036A0008091580290915902A0915A02B0915B0208
:1036B0004196A11DB11D8093580290935902A09389
:1036C0005A02B0935B02BF91AF919F918F911F906F
:1036D0001FBE1F901895CDB7DEB72A970FB6F89486
:1036E000DEBF0FBECDBF84B7877F84BF0FB6F8940F
:1036F000A8958091600088618093600010926000BE
:103700000FBE80E890E00FB6F8948093610090932C
:1037100061000FBE85B7806885BF85B7806885BFAB
:1037200082E095E090939101809390010E946A025B
:103730000E9435038091E20084608093E2007894D7
:1037400080914E028823A1F01091E9001F709091A2
:10375000EC00892F817090FD80E8182B1092E90011
:103760008091E80083FD0E94B90D1F701093E9005D
:1037700082E084BD93E095BD9AEF97BD80936E0083
:103780000CE411E081E5E82E81E0F82ED8018D915E
:103790008D018F3F11F00E940405E016F106B1F78C
:1037A00001E511E0F80181918F018F3F11F00E9436
:1037B0000405F1E000361F07A9F78AE0E8E0F2E02F
:1037C000DF01282F1D922A95E9F7EDEFF1E0DF01E7
:1037D0001D928A95E9F790E080E00E94801E893E64
:1037E0009E4F11F00E94821182E090E00E94721EB2
:1037F000809313020E9475109093FC018093FB014B
:1038000083E090E00E94721E0E943C0880910702B3
:10381000811136C090E080E00E94801E893E9E4F5C
:1038200021F00E9482110E949F0D88E090E00E948A
:103830007A1E609332027093330280933402909325
:1038400035026E7F71F40E949F0D88E090E00E9427
:103850007A1E609332027093330280933402909305
:1038600035020E945D04109225028091320280FF91
:1038700004C060E086950E943C0D81E080930702C1
:103880008091320281608093320260E086950E94CE
:103890003C0D60E083E20E943C0D80E091E090935B
:1038A0003A0280933902E8E1AE2EB12CF0E49F2E6B
:1038B000A2E1CA2EA2E0DA2EB0E17B2E80914E0268
:1038C00012E1853009F4DCC00E948310882359F08E
:1038D0008FB7F894409158025091590260915A0262
:1038E00070915B028FBF48E052E0A0E6B1E074E166
:1038F000472E72E0572E10E000E0802EFA01219151
:103900003191AF018D919D9182239323F2012191F9
:1039100031912F012817390709F4C2C02827392708
:10392000612CEE24E394F12CB9016E217F21672BE9
:1039300009F4B0C069828A8297012823392391E073
:10394000232B09F490E09B830E94FA038160782F77
:103950009D838C8349815A816B818D810E9473196B
:10396000000F111FF801EC5EFD4F80819181E82668
:10397000F926F182E082809125028823D1F180919D
:103980002402E0913202E695E81BE09320028230A7
:1039900009F09DC0F0E0E05BFE4FE4910E2F10E0D7
:1039A000EDE1EE2EECE0FE2E80912102882361F005
:1039B000109221020E94FA0390931F0280931E022C
:1039C00010922302109222020E94FA03E0911E023A
:1039D000F0911F028E1B9F0B8F3F9F4750F4E00F0B
:1039E000F11FF0931F02E0931E028EE192E0F701B7
:1039F00009950E944C0490911202891709F45ECF38
:103A00000E944C048093120259CF80914E02843060
:103A100009F110923D020FB6F894A895A0926000AB
:103A20000FBE9092600083B7817F846083BF83B7AD
:103A3000816083BF7894889583B78E7F83BF0FB6EC
:103A4000F894A8958091600088618093600010923E
:103A500060000FBE80914D02882391F00E94831078
:103A6000E8E0F2E0A0E6B1E0819191912D913D91E5
:103A700082239323892B09F084C0CE16DF06A1F799
:103A800080914E02853009F4C0CF0E94AE0D0E9495
:103A90004C041ACF6394EE0CFF1CFFE06F1244CF6E
:103AA0000F5F1F4F0530110509F027CF8FEF8E8371
:103AB0008F8318860E94FA038160782F9A878987FE
:103AC0004E815F8168858A850E94731954CF863044
:103AD00059F4F0E0E35BFE4FE4910E2F10E07DE03F
:103AE000E72E7CE0F72E60CF893061F4E695F0E0B8
:103AF000E65BFE4FE4910E2F10E061E7E62E6BE0EF
:103B0000F62E52CF8F3061F4E695F0E0E95BFE4F80
:103B1000E4910E2F10E053E0E52E5BE0F52E44CF4C
:103B2000853159F4F0E0EC5BFE4FE4910E2F10E08C
:103B30004CEAE42E4AE0F42E37CF08E210E090E29F
:103B4000E92E9AE0F92E883109F42ECF833249F418
:103B5000E2E4F1E00591149134EBE32E3BE0F32E27
:103B600023CF04EF11E028EEE22E29E0F22E84327A
:103B700009F41ACF00ED17E085EFE82E83E0F82E68
:103B800013CF79BC19BD09B400FEFDCF8091D800D8
:103B90008F7D8093D8008091E00082608093E00068
:103BA0008091E00081FDFCCF0E94AE0D69CF87FBC4
:103BB000082E062687FD819567FD61950E94661E89
:103BC0000EF4919507FC81950895AA1BBB1B51E14A
:103BD00007C0AA1FBB1FA617B70710F0A61BB70B7D
:103BE000881F991F5A95A9F780959095BC01CD0122
:103BF000089597FB072E16F4009407D077FD09D09F
:103C00000E94E51D07FC05D03EF4909581959F4FDD
:103C10000895709561957F4F0895A1E21A2EAA1B11
:103C2000BB1BFD010DC0AA1FBB1FEE1FFF1FA2176C
:103C3000B307E407F50720F0A21BB30BE40BF50B69
:103C4000661F771F881F991F1A9469F760957095F2
:103C5000809590959B01AC01BD01CF010895EE0FB9
:103C6000FF1F0590F491E02D09940E943D1E33231F
:103C700012F48A1B9B0B0C944E1EA29FB001B39FA3
:103C8000C001A39F700D811D1124911DB29F700D65
:103C9000811D1124911D08950E943D1EB7FF0895B6
:103CA000821B930B08950E943D1EA59F900DB49F0B
:103CB000900DA49F800D911D11240895B7FF0C94C1
:103CC000531E0E94531E821B930B0895991B79E08B
:103CD00004C0991F961708F0961B881F7A95C9F79C
:103CE00080950895F999FECF92BD81BDF89A9927E4
:103CF00080B50895A6E1B0E044E050E00C94AC1E1D
:103D0000A8E1B0E042E050E00C94AC1E262FF999F7
:103D1000FECF92BD81BDF89A019700B4021639F02A
:103D20001FBA20BD0FB6F894FA9AF99A0FBE0895FB
:103D30000396272F0E94871E0E94861E252F0E9411
:103D4000871E242F0C94871E0196272F0E94871E02
:103D50000C94861EDC01CB01FC01F999FECF06C054
:103D6000F2BDE1BDF89A319600B40D924150504039
:103D7000B8F70895FC014150504030F0019006160C
:103D8000D1F73197CF010895882799270895FB012E
:103D9000DC0104C08D910190801921F44150504004
:103DA000C8F7881B990B0895F894FFCFE207E20744
:103DB000EB07EB07ED07EB07EB07EB07E207E20783
:103DC000F207EB07EB07F2079D0EC50E5D10C50E5F
:103DD0005D10F80E190F5D1016102310A914A91408
:103DE000E214E2149515111511151115AF151A16D7
:043DF0002916291651
:103DF400F7037E09F6037A097609F40301191A1BFD
:103E04001C1D1E1F20212201020101818283E20068
:103E1400E900EA00B500B600B700CD008301CC008C
:103E24008A0192019401210223022402250226021E
:103E340027022A02B300B4006F007000F1F4F5F613
:103E4400F73435366667303132919293959496976C
:103E5400FF7FFF5FFF4FFD6F460C0001020202026D
:103E64000606060909090909090F0F0F0F0F0F1597
:103E740015151819191919191919191919232400BB
:00000001FF
